:100000000C941A030C9461030C947C030C9461030C
:100010000C9461030C9461030C947B270C94610392
:100020000C9461030C9461030C9461030C946103C0
:100030000C9461030C9461030C943A270C946103B3
:100040000C9461030C9461030C9461030C946103A0
:100050000C9461030C9461030C9461030C94610390
:100060000C9461030C9461035C0A5C0A8C0A8C0A90
:10007000250B430B890C890C4E0BC10BD40BD40BF5
:100080002B1140114B11D412D41286119511A211CB
:10009000D412AD11D711031241124412441B441B58
:1000A000561B561B4D1B561B561B561B441B441BF5
:1000B000521B561B561B521BFD377A585A00000420
:1000C000E6D6B4460200210116000000742FE5A315
:1000D000E00261011C5D003D8889C65436C3174F9C
:1000E000E4E20E164D853C533C3A18756871F4C72E
:1000F00044ABE53413BAED6CC98780653A10650AE4
:100100007DAC3202D439F09C6CFDE264E7F136C874
:10011000B17FCF0013D128BBF1FE7430170B3F9C89
:100120009E1819E543C1ECA326B34C0C3E23715035
:10013000F730024BEA629848923944D89B69ACA5E3
:10014000765F541C2DCA247D64AF4BB05F50900085
:100150008A5851F23215DDBC408B67C573B00B8BEA
:1001600048568C1A3F1E9FB772C246B5648B7B8A75
:1001700080468020D2B60C68C6BADD942046564E22
:10018000B22EEFDACB8C58CA584E2AFBF2C005A625
:1001900076AF1B2418970548D13C7F09678D7740BF
:1001A00007ADE16678D11B1C63AD7E7452F42485E3
:1001B000518121447D39EE70E6979D4F8DBD7C8441
:1001C000A0B8599395A38835FB49FFA279AC737702
:1001D000FA7A2588DC6A6F42A6EEBF47DBDE0F1A8B
:1001E0009607FBD4C194457A4F461F104BAA37D5CA
:1001F00016B500009BCF5FDE325114A30001B80298
:10020000E2040000CA377334B1C467FB0200000087
:100210000004595A14001A000800150017001C00A9
:1002200018000C001200130004001600070009005B
:100230000A000B000D000E000F0028001D001B001F
:1002400006001900050011001000360037003800C4
:10025000010001000100010001002C002C00010040
:100260000100025101000100010001000100010034
:100270000100010001000100010001000100010076
:100280000100010001000100010001000100010066
:100290000100010001000100010001000100010056
:1002A0000100010001000100010001000100010046
:1002B0000100010001000100010001000100010036
:1002C000010001000100005C0100010001000100CB
:1002D0000100010001000100010001000100010016
:1002E0000100010001000100010001000100010006
:1002F00001000100010001000100010001000100F6
:1003000001000100010001000100010001000100E5
:1003100001000100010001000100010001000100D5
:1003200001000100010001000100010001000100C5
:1003300001000100010001000100010001000100B5
:1003400001000100010001000100010001000100A5
:10035000010001000100010016030000020002007C
:100360001203000003000100170300000400020054
:10037000FC024A13050001001803000006000200F9
:10038000FE02000007000200140300000800010044
:100390001903000009000200000325130A000200EF
:1003A000020325130B000200040325130C000200B6
:1003B000060325130D000200080325130E0002009A
:1003C0000A0325130F0002000C032513100002007E
:1003D0000E03251311000200100325131200020062
:1003E0001A030000130002001C03000005010902AB
:1003F000A10185020901A1000509190129051500BE
:10040000250195057501810295017503810305019B
:10041000093009311581257F950275088106093853
:100420001581257F950175088106050C0A3802158E
:1004300081257F950175088106C0C005010980A14D
:1004400001850319012AB700150126B7009501752A
:10045000108100C0050C0901A101850419012AA021
:1004600002150126A002950175108100C00660FFEB
:100470000961A1010962150026FF00952075088118
:10048000020963150026FF00952075089102C0053A
:10049000010906A101050719E029E71500250195C5
:1004A0000875018102950175088103050719002966
:1004B000FF150026FF009506750881000508190143
:1004C0002905950575019102950175039103C01CDD
:1004D000037600690061006C003A00660036003463
:1004E0000063003200620033006300000010034C20
:1004F00000450053004F0056004F005A0000001204
:10050000037300710075006100730068006B006286
:100510000000000403090409025B00030100A0FAC3
:100520000904000001030101000921010100012269
:1005300040000705810308000109040100020300CF
:10054000000009210101000122220007058403089F
:10055000000107050403080001090402000103006B
:100560000000092101010001228100070583030821
:10057000000112011001000000085153534C01000A
:100580000102030100000000000000000000000064
:10059000000000000000000000000000000000005B
:1005A00000000000000000007E0F00D4FFFFFFC726
:1005B0000000007800000000000000002A2B280046
:1005C0000000000000000000000000000000002902
:1005D000000000002C1E3420212224342627252E42
:1005E000362D3738271E1F2021222324252633337A
:1005F000362E37381F0405060708090A0B0C0D0EA6
:100600000F101112131415161718191A1B1C1D2F71
:100610003130232D350405060708090A0B0C0D0E91
:100620000F101112131415161718191A1B1C1D2F51
:100630003130354C11241FBECFEFD8E0DEBFCDBF27
:1006400004B603FE27C08091E7049091E804A091CE
:10065000E904B091EA048730904BA740B04BD1F445
:100660001092E7041092E8041092E9041092EA0450
:1006700014BE84B7877F84BF0FB6F894A895809185
:100680006000886180936000109260000FBEE0E01F
:10069000F8E3099511E0A0E0B1E0E4E0FDE502C077
:1006A00005900D92A636B107D9F724E0A6E6B1E091
:1006B00001C01D92A73EB207E1F70E94E50C0C9421
:1006C000802E0C940000A82FB92F80E090E041E02C
:1006D00050EA609530E009C02D9182279795879563
:1006E00010F084279527305EC8F36F5FA8F3089554
:1006F000EADF8D939D930895CF93CFB7CF93DF9388
:10070000C3954B9BE9F74B9B10C04B9B0EC04B9B7B
:100710000CC04B9B0AC04B9B08C04B9B06C0C091B2
:100720009B04C395C0939B048EC06F93C091C1047A
:10073000DD27CC53DB4F2F9365E54B9B03C02F91F7
:100740006F91E1CF0F931F934F9320E040E15F93B0
:1007500009B10C7003FB27F93F9350E03BE039C02F
:100760001C7040642F77012F5F5F1EC0406819B175
:100770001C702F7752501FC0406409B12F770C7046
:10078000D1F15F5F00C023C0406219B12F771C70A8
:1007900091F15F5F00C025C00C701027515012F41A
:1007A0005D5F0000115027952C3F19B1C8F61C70F1
:1007B0000127015027952C3FC8F64227499309B1DC
:1007C0000C7010274F73115027952C3FA8F64695B3
:1007D000469519B11C7079F00127015027952C3FDF
:1007E00098F66B5A60F3315009B1B0F600C012E0D0
:1007F0001CBB00271CC03B503195C31BD04012E0EE
:100800001CBB0881033C21F10B3411F12091BF0482
:100810001981110F1213EDCF4A81441F093679F166
:100820000D3211F0013E29F74F7009F0042F0093AB
:10083000E6043F915F914F911F910F912F916F911E
:10084000CCB3C1FD5DCFDF91CF91CFBFCF911895D4
:100850002091E604222369F31091C204112309F0C8
:1008600049C034300AF448C03093C2042093C00415
:100870001091C1043BE0311B3093C1043DC0009195
:10088000C2040130BCF50AE54F7049F430911D01F6
:1008900034FD33C000931D01CCE9D4E032C04330B5
:1008A00059F0443091F03091A70434FD26C00093F4
:1008B000A704C8EAD4E025C03091DA0434FD1DC095
:1008C0000093DA04CBEDD4E01CC03091B30434FDC6
:1008D00014C00093B304C4EBD4E013C0052710E0A8
:1008E00000C000000BB91AC0052710E0221F1DC070
:1008F00010E021C04AE502C032ED432FC4E1D0E050
:1009000032E01AB11C605B9A0BB11AB95CE020E8C6
:1009100065E320FF05270BB9279517951C3FF0F6D7
:100920006695B8F7B1F720FF05270BB927951795FE
:100930001C3FD0F62795179517FF052700001C3F91
:100940000BB9B0F629913A9519F7037F1091C304BA
:10095000110FC651D0400BB911F01093BF0412E033
:100960001CBB08601AB1137F402F437F54E05A9597
:10097000F1F70BB91AB94BB95CCF8F929F92AF9236
:10098000BF92CF92DF92EF92FF920F931F93CF937C
:10099000DF9300D000D0CDB7DEB77C01DC01139629
:1009A0004D915C91149711966C9111978C910E94C6
:1009B000FF2881110C94D40C61E0C7010E94D42A55
:1009C0008C01F7018281811106C0D70112968C91AA
:1009D00081113EC0ACC48091190190911A01019619
:1009E000A1F364E2C62E63E0D62EA12CB12C99248B
:1009F00093948091190190911A018A159B052CF30B
:100A0000F60186818823E9F0818592850817190708
:100A100039F480912203909123030817190789F074
:100A2000D6011F969C921F971C961C930E931B97A2
:100A3000C6010E946628C60106960E941F281092D1
:100A40002103BFEFAB1ABB0AE6E1CE0ED11CD1CF1A
:100A5000C80182519F45409708F07DC08FEF93E019
:100A60000E94E42D811150C45EEED52ED00E01E01F
:100A700012E0DD2071F00115F4E01F0709F444C411
:100A8000C8010E94E42D811101C0DA940F5F1F4F4D
:100A9000F0CF19821A821B821C82AA24AA946801B0
:100AA0002FEFC21AD20AC8010E94E42D89831A824C
:100AB000882309F429C4813009F048C0480182E044
:100AC000880E911CC6010E94E42D8A83882309F4B4
:100AD0001BC49FEF980F933060F4680193E0C90E38
:100AE000D11CC4010E94E42D8B8381112FC086018B
:100AF000D6CF843011F06401FACFC4010E94E42DF6
:100B0000B82E6801A4E0CA0ED11CC80103960E9449
:100B1000E42DBB2009F4F8C3882309F4F5C3282F7A
:100B200030E021503109A29EA001A39E500D112456
:100B30008B2D90E00197840F951F0197C0F2EFE98C
:100B4000FFE03197F1F700C00000F7CFCE0101962A
:100B50000E94F829CCCF00312FE5120731F0013186
:100B60008FE5180741F482E001C081E00E94271B55
:100B70000E941125C9C35F9A0FC0680197E5D91A71
:100B8000AFEFCA16D10409F008F4E0C3D7011296FA
:100B90008C918111F0CF5F98F7018281882311F049
:100BA000289A01C02898C80197558F3F910511F0E8
:100BB00008F053C02091190130911A012817390704
:100BC00024F490931A0180931901D70112962C9165
:100BD000129736E1389F5001399FB00C1124F5016E
:100BE000EC5DFC4F6F01208B12969C9186819923BE
:100BF00051F1128701878F5F86830E946F27D6018C
:100C00001E969C938E931D978091660217968C93E7
:100C10001797909121038091D601892B18968C9378
:100C20001897ED91FC911197309741F054966D9182
:100C30007C915597C501865D9C4F099510932303C0
:100C4000009322030AC0882341F08189882329F078
:100C5000C501865D9C4F0E941F288091170380FF6D
:100C60006CC10E946F276C01D70112968C9188236A
:100C7000D9F18091180182FF08C02BE632E040E0F4
:100C8000B60180E090E00E947F140B31BCE51B07A9
:100C900079F00C31ECE51E0789F00A31FCE51F07FD
:100CA000A1F480911801982F909590FB80F909C0CC
:100CB0008091180181608093180107C0809118010C
:100CC0008E7F809318010E944214C80190568115AE
:100CD00020E2920720F0905E8115904180F51092FD
:100CE000FA011092F90129C1013E110521F4809108
:100CF00018018F7E06C0053E110531F48091180160
:100D00008F7D809318011BC0C80190568115B0E2F9
:100D10009B0720F0905E8115904188F48091180126
:100D200082FF0BC18091190381FD07C12BE632E0E0
:100D300040E0B60180E090E00E947F14FEC0809108
:100D4000180180FFFAC0D70112968C910832110564
:100D500038F40E311105B8F40430110578F4C9C027
:100D60000933110538F40D32110590F40B321105D9
:100D700079F0BFC00436110559F0BBC0909117033C
:100D800094FDB7C009C09091170393FDB2C004C091
:100D90009091170392FDADC0882309F4A3C0209160
:100DA000D60180916602982F922B392F3D7F79F1E1
:100DB0001092FA011092F9013091170331FD27C00A
:100DC000F80143E0F695E7954A95E1F7EE71FF27C4
:100DD000E952FE4F98012F70332781E090E002C066
:100DE000880F991F2A95E2F780959095208131818F
:100DF0008223932391838083A70160E0C8010E942E
:100E00006014809166028D7F0E941C2367C038E0C9
:100E1000F701ABE6B2E001900D923A95E1F710923E
:100E20006D0210926F0210926E024091F901509182
:100E3000FA0104171507D1F53091170335FF36C0B5
:100E40004091180141FF02C036FF30C04091F701C8
:100E50005091F801B601641B750B40911403509139
:100E600015036417750710F521FF08C0809118015C
:100E700080618093180182E00E9437238091D6011F
:100E800085FF08C08091180180628093180180E27C
:100E90000E9437236091180166956170A7018091C7
:100EA000F9019091FA010E9460142EC296959170FA
:100EB0002091180190FB21F9209318018D7F0E9449
:100EC0001C231093FA010093F901D092F801C0920B
:100ED000F7018091180184608093180182E00E94DC
:100EE0004B2312C2970140E0B601C8010E947F1453
:100EF0000BC2882311F11092FA011092F901033FFD
:100F0000BCE51B07B9F178F4083DFCE51F0761F16A
:100F1000093D2CE5120709F44EC0073D8CE5180782
:100F200009F057C01BC0053F9CE51907A1F168F106
:100F3000063FBCE51B07C9F14CC0033FBCE51B07DE
:100F4000C9F0F0F4083DFCE51F0771F0093D2CE500
:100F5000120789F1073D8CE51807B1F506E221EE8D
:100F600041EE67ED7CE52CC007E225EE45EE68ED2D
:100F70007CE526C006E221EE40EE63EF7CE520C072
:100F8000053F9CE5190739F060F407E225EE44EED1
:100F900064EF7CE515C006E221EE42EE65EF7CE5EC
:100FA0000FC0063FBCE51B0779F407E225EE46EECD
:100FB00066EF7CE505C008E221E045EE69ED7CE5E1
:100FC000C7010E948828A0C1F7012281222309F4C9
:100FD00030C1109220030330FDE51F0758F40A3F8B
:100FE0002CE5120760F4C80182509C45449708F034
:100FF0001FC105C001368DE5180709F019C10E940F
:10100000962290936C0180936B0100319CE5190747
:1010100009F4CAC008F041C00830BCE51B0709F458
:10102000A4C0F0F40430FCE51F0709F48CC068F498
:1010300002308CE5180709F482C003301C4509F022
:10104000E7C080916B018260E1C00630ACE51A0711
:1010500009F483C008F085C080916B018860D6C018
:101060000C30ECE51E0709F490C068F40A302CE55A
:10107000120709F47EC008F084C00E94691B8091A9
:101080006B018068C3C00E309CE5190709F481C06C
:1010900008F086C080916B0194C00C3FBCE51B0733
:1010A00009F47BC038F50431FCE51F0709F49AC048
:1010B00058F402318CE5180709F47AC008F07EC0B4
:1010C00080916B018F7BA2C00A3FACE51A07F1F15A
:1010D00008F03FC005311C4509F09AC080916B01B2
:1010E00082FB222720F991E0922790FB82F990FB66
:1010F00083F98CC00115FDE51F0709F467C050F4A2
:1011000080916C010E3F9CE51907C1F108F05BC0AE
:101110008D7F65C00230BDE51B0709F471C008F47E
:101120006DC001361D4509F073C080916B0184FBD1
:10113000222720F991E0922790FB84F967C08091E3
:101140006B01816063C080916B0116C080916C015E
:1011500016C080916C01826042C080916B018061F9
:1011600055C080916B01806251C080916B01806499
:101170004DC080916B018860846048C0826081604E
:101180002EC080916B018E7F41C080916B018D7F5D
:101190003DC080916B01877F39C080916C0114C084
:1011A00080916B018F7E32C080916B018F7D2EC04C
:1011B0000E94691B80916B018F7728C080916B0121
:1011C000877F8B7F23C08D7F8E7F09C080916C01CC
:1011D000982F909591708E7F892B90FB81F9809349
:1011E0006C0116C00E94691B80916B0187FB22274E
:1011F00020F991E0922790FB87F908C061E001C0D7
:1012000060E08EE090E00E94F22D02C080936B01BE
:1012100060916B0110916C0184E090E00E94F22DCE
:10122000612F82E290E00E94F22D0E94691B6CC047
:1012300021E00631ECE51E0709F047C08091D60198
:10124000982F9A7A3091160330FF04C0482F4474C7
:1012500009F090E031FF04C0482F417109F090E09F
:1012600032FF04C0482F487809F090E033FF02C0F5
:10127000827261F42223A1F081E0911101C080E02B
:1012800080936801992331F065E305C0222341F082
:101290001092680169E28DE092E00E94CD2712C0B1
:1012A00080916801882311F085E301C089E2EDE0B7
:1012B000F2E09281891301C01282319622E0E3317B
:1012C000F207B9F70E94B5231FC0D70112968C917F
:1012D000882309F49BC00A358DE5180709F491C0ED
:1012E00008F080C00115ACE51A0709F075C00E942E
:1012F000691B2FEF84E39CE0215080409040E1F790
:1013000000C000000E94252780916202877009F4C6
:101310004BC3D70112968C91882309F445C3809161
:101320006C0182FD41C382E00E944B233DC300312A
:10133000BFE51B0721F481E00E941B1B19CC013182
:10134000EFE51E0709F019CC82E0F6CF60EA71E004
:101350008C2D0E94EC15892B09F018CC86E18C9D10
:10136000F0018D9DF00D1124EC5DFC4F86818130E4
:10137000E1F48091A0019091A101892B09F406CCA0
:101380008091A2019091A301892B09F4FFCB809158
:10139000A4019091A501892B09F0F8CB8091A601B9
:1013A0009091A701892B59F0F1CB823009F0EECB57
:1013B0008091A4019091A501892B09F4E7CB26E146
:1013C0002C9DC0012D9D900D11248C5D9C4FFC0126
:1013D000108A0E946628DACB0E3D1C45B9F40E94A3
:1013E000A72292CF0B35EDE51E0769F00C351D45A0
:1013F00069F480916C0182FB882780F991E089274C
:1014000003C081E001C080E00E946823D7011696E6
:101410008D919C9117970097B9F4F7018281008113
:101420001181882349F0C8010E947E1AD82E682FA6
:10143000C8010E94EA1A04C0C8010E94BA1AD82E34
:10144000B8018D2D0E9400180E94FC20182F092F32
:10145000D7011296BC9012971596CC90C2943FE09B
:10146000C322809162028770B9F0BB20A9F0892F56
:10147000807F803421F080E2810F883068F0809195
:101480006C0182FD09C082E00E944B2380916202C0
:101490008770AA24A3948111A12C902E92942FE0FE
:1014A0009222892D90E08C30910508F032C2FC0127
:1014B000EC5CFF4F0C94562E902F9F70802F807FF6
:1014C000D92E19F0D29490EFD922BB20A9F0DD20BB
:1014D00009F4FFC180E2810F883010F0111104C0BF
:1014E0008D2D0E943E2305C080912103D82AD092E1
:1014F00021030E94B523EDC1812F0E94931BDD20A3
:1015000009F407C280E2810F883068F1112359F194
:101510008D2D0E9430232AC0902F9F70802F807FB6
:10152000D92E803219F0D29480EFD822112321F0E5
:10153000113009F45CC067C080916C0182FF19C052
:10154000BB2059F0DD2029F08D2D0E943E230E9402
:10155000B52380E00E94CB1BDCC180E00E94931B7E
:10156000DD2009F4D6C18D2D0E9437230E94B523BA
:10157000D0C1BB2001F1CC20D1F0B1E0CB1206C02C
:10158000809166028D290E941C23C3C1809118039B
:10159000823068F0C8120BC00E94112380915F0254
:1015A000D812D0925F028D2D0E948C1BB2C1809107
:1015B00066028D29F9CFCC2079F080911803E1E003
:1015C000CE1210C0823008F4A4C18091D6018D21C2
:1015D00009F49FC10E94F0230E9411238D2D0E94C7
:1015E000851B97C18230C0F3C812F6CF92C1BB20D1
:1015F00029F0F5E0FC1508F48CC1D5CF24E02C15BA
:1016000008F487C1EBCFBB20E9F0CC2061F220E0E9
:10161000D7014C9111965C91119712966C9112978B
:1016200013967C91139714968C910E94AB2A80910B
:10163000190381FD4EC1F701858180FF4AC18F707A
:101640008583B1CFC1104EC1C9CF802F86958695B5
:10165000837019F0813061F05CC1BB2021F0812FD3
:10166000902F937002C080E090E00E94FD2757C148
:10167000BB2021F0812F902F937002C080E090E07A
:101680000E94E7274CC1812FBB2019F00E94F91955
:1016900002C00E943B190E94111941C1802F837022
:1016A000A1F5B1103AC1412F429546954770440FBC
:1016B000440F212F2F7030E0C901042E01C0880F84
:1016C0000A94EAF714FF08C02FE030E001C0220FAF
:1016D0004A95EAF7209501C020E0302F36953695DF
:1016E0003370323069F040F440916702313019F0C4
:1016F000822B842302C0842B822B0E94321B0DC1BB
:10170000282B809167028227F8CFBB2019F0802F09
:10171000817001C08695882309F4FFC0412F42954E
:1017200046954770440F440F212F2F7030E0C901B8
:10173000042E01C0880F0A94EAF714FF08C02FE0B6
:1017400030E001C0220F4A95EAF7209501C020E061
:10175000302F369536953370323051F070F4409119
:101760009A04313019F0822B842308C0842B05C0E1
:10177000282B80919A04822701C0822B0E94171B7C
:10178000CCC0F02FFF70DF2EBB2039F08F2F0E94CE
:10179000271B812F0E948C1BC0C0812F0E94851B9C
:1017A0008D2D0E941B1BB9C0123F11F128F4103F70
:1017B00041F0113FA9F189C0133F01F1143F61F1DC
:1017C00084C0BB2029F024E02C1508F4A2C004C07A
:1017D00085E08C1508F49DC0202F2F7181E090E0EA
:1017E00001C0880F2A95EAF790919A0489270FC0C3
:1017F000802F8F71BB2009F470C087C0BB2051F0CF
:1018000081E0902F9F7101C0880F9A95EAF70E949E
:10181000171B7FC080E0FBCF80916C0182FF06C068
:10182000802F8F71BB2009F470C057C080911803BE
:101830008230A0F180915F02BB20E1F00E9437234B
:10184000809162028770843039F40E944423802F93
:101850008F710E941B1B5CC080911803C81608F092
:1018600057C0902F9F71D92E892F0E94271B63E0AC
:101870008D2D0DC00E943E2380911803C81650F094
:101880000E9444230E94F02364E0802F8F710E9405
:1018900085233EC081E00E944B233AC0BB2059F013
:1018A000A02FAF71DA2E8A2F0E94271B63E08D2DA7
:1018B0000E9485232EC081E00E944B23B1E0BC151D
:1018C00040F582E00E944B2324C0BB2049F0CC208D
:1018D00011F0812F3FCE802F8F710E94271B19C0DE
:1018E000CC2089F0193329F480911C0390911D03B9
:1018F00004C080911A0390911B030E947414812FDD
:101900000E94931B06C0802F8F710E941B1B01C079
:10191000A12C88EF890D843010F40E941328812FA8
:10192000902F0E94361B811105C010926A011092FF
:1019300069011EC0BB2019F0C110F7CF19C0C1103A
:10194000F4CF20E0F701408151816281738184816D
:101950000E94AB2A8091190383FFE7CF8091690130
:1019600090916A01029709F7812F0E94261CDDCF12
:10197000AA20B1F08091620280FD12C0D7011296B8
:101980001C928595859585950E94271BC7010E940D
:10199000BD04809162028595859585950E941B1BEB
:1019A00060E0C7010E94D42A0F900F900F900F9013
:1019B000DF91CF911F910F91FF90EF90DF90CF902B
:1019C000BF90AF909F908F900895CF93DF93CDB746
:1019D000DEB764970FB6F894DEBF0FBECDBF0E948E
:1019E0006F2790938A018093890190E080E80FB679
:1019F000F89480936100909361000FBE80E39FE1B3
:101A000090936701809366010E9475180E941C18CC
:101A10000E94571580916900886080936900E99A57
:101A20008BE48093A8048093DB048093B4048AE55C
:101A30008093A7048093DA048093B304539A80E0E0
:101A4000815041F0A895AFE9BFE01197F1F700C0D0
:101A50000000F6CF5398789482E084BD93E095BD62
:101A60009AEF97BD80936E000E94F818811102C012
:101A70000E94E91806E211E0BAE2EB2EB1E0FB2E7B
:101A8000F80181918F018F3F11F00E94751FE016C0
:101A9000F106B1F70AE211E0A4E3EA2EA1E0FA2E82
:101AA000D8018D918D018F3F11F00E94751FE016B6
:101AB000F106B1F788E0E1E8F1E0DF01282F1D929F
:101AC0002A95E9F7EDE6F1E0DF011D928A95E9F745
:101AD00080E090E00E94EC2D8A3E9E4F21F40E940F
:101AE000F818811102C00E94A72282E090E00E94B3
:101AF000E42D809376010E94962290936C0180934E
:101B00006B010E948C1FEFE3FCE93197F1F700C0F5
:101B100000000E948C1F8091810180FF08C06FEF40
:101B20007FEF80E090E00E94102E0E94252783E046
:101B300090E00E94E42D0E94321B80E091E090939F
:101B4000D7038093D603FFEF20E732E0F150204027
:101B50003040E1F700C00000FF24FA9454E0752EF5
:101B600060E4462E552453948E010F5F1F4F7AE098
:101B7000E72EE0E26E2EF2E32F2E312C80919B04B3
:101B8000882399F010929B040E946F2790938A01FA
:101B9000809389018091DA03882379F11092DA0326
:101BA0000E94691B0E94132811C08091DA038111E1
:101BB00011C08091890190918A010E946027069747
:101BC00028F081E08093DA030E94A4278091DA0351
:101BD000882399F081E08093DA030E94A4270E9471
:101BE0008C1FE1E8F1E081919191892B09F006C504
:101BF00041E0E938F407B9F7C1CF0E941C25809174
:101C00009204882309F46AC18091A70484FF66C105
:101C10000E948C1F882359F08FB7F8944091DC0301
:101C20005091DD036091DE037091DF038FBFA1E867
:101C3000B1E0E7E7F1E0C12CD12C6C2D2D913D9165
:101C40008191919182279327009779F170E0AA24DE
:101C5000A394B12CAC014A215B21452B09F17B8770
:101C60006C872A213B2181E0232B09F480E08D87BA
:101C70000E946F278160782F9F878E874B855C85B8
:101C80006D858F850E94E22AF601EE0FFF1FE9584D
:101C9000FE4F80819181A826B926B182A0821BC007
:101CA0007F5FAA0CBB1C7A30A9F65FEFC51AD50A74
:101CB00084E0C816D10409F6F88AF98A1A8A0E94C3
:101CC0006F278160782F9C8B8B8B488959896A8913
:101CD0008C890E94E22A86E0E2E9F1E0D8010190D5
:101CE0000D928A95E1F7A0909401B0909501C09073
:101CF0009601D09097011092940110929501109244
:101D0000960110929701A11003C0BB2009F45DC099
:101D100080919001909191010E946027AC01909177
:101D20008C01992339F02091140130E024173507F4
:101D300058F04BC020911501AAE02A9F9001112470
:101D40002417350718F041C09F3F19F09F5F90930B
:101D50008C01AA2061F00E947C2D1A1414F491E0E9
:101D600001C09FEF899F802D112480939401BB2097
:101D700061F00E947C2D1B1414F491E001C09FEFD0
:101D8000899F802D112480939501309194013323F4
:101D9000E1F0209195012223C1F045EB3403C0010D
:101DA0001124992319F09093940103C081E080934A
:101DB000940155EB2503C0011124992319F0909348
:101DC000950103C081E080939501C11003C0DD201F
:101DD00009F45DC080918E0190918F010E9460276F
:101DE000AC0190918B01992339F02091100130E0E2
:101DF0002417350758F04BC0209111018AE0289F25
:101E0000900111242417350718F041C09F3F19F0A5
:101E10009F5F90938B01CC2061F00E94C0191C142D
:101E200014F491E001C09FEF899F802D11248093CD
:101E30009601DD2061F00E94C0191D1414F491E098
:101E400001C09FEF899F802D1124809397013091CD
:101E500096013323E1F0209197012223C1F045EB55
:101E60003403C0011124992319F09093960103C003
:101E700081E08093960155EB2503C001112499233D
:101E800019F09093970103C081E0809397018091AE
:101E9000940181110BC080919501811107C080913F
:101EA0009601811103C08091970181110E9411193F
:101EB000AB82BC82CD82DE8286E0F801A2E9B1E08D
:101EC00001900D928A95E1F70E9413289091750177
:101ED000891721F00E941328809375010E94CA2659
:101EE0000E941C2580919204882309F447CE80919A
:101EF000DA0484FF43CE80918804803209F03ECE1C
:101F0000C090D401D090D50180916804C114D1044F
:101F100069F08E3F09F048C380916904833008F46A
:101F20008DC18550833008F03FC388C1893009F4E2
:101F300039C328F5843009F49AC060F4823009F47A
:101F400040C008F080C0813009F02CC310926904B1
:101F500089E000C2863009F495C008F023C32091BF
:101F60006C0430916D0432272327322740916B0493
:101F700060916A04809169040E94051715C380313D
:101F800009F4EFC090F48D3009F47FC038F48C3040
:101F900009F008C380E18093690406C38E3009F418
:101FA0007AC08F3009F4A8C0FDC2823109F4DCC0C8
:101FB00008F495C2833109F407C18E3F09F43EC18C
:101FC000F1C280916904823009F432C3833099F000
:101FD000813009F0E7C22FB7F8948091DC0390912B
:101FE000DD03A091DE03B091DF032FBFB0936A043D
:101FF000A0936B0444C080910C0190910D01892B3A
:1020000009F4D2C2809181019091820190936A0477
:1020100080936B04809183019091840190936C0470
:1020200080936D04809185019091860190936E0458
:1020300080936F0480918701909188019093700440
:1020400080937104B1C280916904823009F0AAC200
:1020500060916A0470916B0480916C0490916D049E
:102060000E945C2E86E290E00E94F22D9DC240917B
:102070006B0460916A04809169040E94D217909366
:102080006C04E0C20E943B178FC281E08093690418
:10209000F0926A0489C2C0906904D0906A04DC247A
:1020A000CD24DC2480906B04912C8DE18816910462
:1020B00008F07AC2E8E6AE2EE4E0BE2EC6018F5FDD
:1020C0009D4F9501285634402815390508F06CC2FB
:1020D000AFEFCA16A1E0DA0628F40E94E42DF5015C
:1020E000848303C0D50114961C92BFEFCB1ADB0A80
:1020F000EFEFAE1ABE0AE2CF80910C0190910D0174
:10210000892B09F451C2C0906904D0906A04DC2480
:10211000CD24DC24A0906B04B12CFDE1AF16B104FA
:1021200008F042C278E6872E74E0972EC6018F5FD2
:102130009D4F9401285634402A153B0508F034C2BF
:102140002FEFC21621E0D20628F4D40114966C9128
:102150000E94F22DBFEFCB1ADB0AEFEF8E1A9E0A18
:10216000E5CF0E94DC1520C2C0906904D0906A04BB
:10217000DC24CD24DC2480906B04912CFDE18F16AF
:10218000910408F011C268E6A62E64E0B62EC601DE
:1021900087969501285634402815390508F004C261
:1021A00020E4C21621E0D20630F40E94E42DD501CD
:1021B00014968C9302C0F5011482FFEFCF1ADF0A48
:1021C0002FEFA21AB20AE3CFC0906904D0906A043C
:1021D000DC24CD24DC24A0906B04B12C3DE1A316BB
:1021E000B10408F0E1C140E4C41641E0D40608F0AF
:1021F000DBC1C2018C199D098A159B0508F4D4C165
:1022000058E6852E54E0952EC601879694012856EF
:1022100034402A153B0508F0C7C150E4C51651E00B
:10222000D50628F4D40114966C910E94F22DBFEFCC
:10223000CB1ADB0AEFEF8E1A9E0AE6CFE091690413
:102240008E2F90E08E30910508F0AEC1FC01E05C6D
:10225000FF4F0C94562E88E0EEE1F1E0D80101909A
:102260000D928A95E1F7A8E6B4E0E62D1D92EA9575
:10227000E9F77092680488E0F801ACE6B4E04DC17B
:10228000FCE5F093680481E08093690410926A048D
:1022900010926B0489C180916B0490E0982F88277D
:1022A00020916A04820F911D092E000CAA0BBB0B12
:1022B00045E0880F991FAA1FBB1F4A95D1F7AC01B3
:1022C000BD01405E5F4F6F4F7F4F481759076A0748
:1022D0007B0708F469C18C3521E09207A105B1059F
:1022E00008F062C14D3531E053076105710520F0FA
:1022F0004CE551E060E070E0481B590BBC016854AC
:102300007F4F88E694E00E94CB2D4EC140E250E022
:102310006FEF70E088E694E00E94792E80910C01C6
:1023200080936804C09269043FC141E050E050933B
:10233000D5014093D4013092800120927F010E9408
:102340006F2732C180910C0180936804C0926904A8
:1023500080917F0180936A0427C1C0906A04D09065
:102360006B0440E250E06FEF70E088E694E00E947A
:10237000792E24E533E080E090E0AC014E5F5F4FC2
:102380004132510508F010C1F90165917491C616EA
:10239000D70630F4FC01E859FB4F71836083CA0112
:1023A000285F3F4F53E02C3E350739F7FDC02091A1
:1023B0006A0430916B0484E593E0FC0145915491EB
:1023C0002417350739F00896ACEEB3E0A817B90723
:1023D000A1F751C0009709F44EC09C012E5F3F4FFA
:1023E000F901459154914032510508F044C0F9017A
:1023F00045915491FC0134966591749189E694E07D
:102400000E94702E3AC080916A0490916B0424E57A
:10241000C22E23E0D22EF601259134918217930724
:1024200049F0B8E0CB0ED11CECEECE16E3E0DE06B0
:1024300091F721C0C114D104F1F0C6010296FC014C
:10244000259134912D313105B0F4FC014591549121
:10245000F6013496859194916CE674E00E94702E9A
:102460000E947E15F601369685919491009729F089
:10247000FC01099502C08FEF01C080E080936804E1
:1024800093C00E949B1590C080916A04823009F429
:1024900049C0B0F48823D1F0813009F085C0809123
:1024A0006B04D801EE2D1D92EA95E9F7B8010E9460
:1024B000EC1580936804F801A9E6B4E08E2D2DC0D8
:1024C000833081F0843009F44EC06EC0A8E6B4E0D9
:1024D000E62D1D92EA95E9F788E0809368047092F2
:1024E000690462C060916B04D801EE2D1D92EA95DB
:1024F000E9F76430B0F5FAE06F9FB001112467523C
:102500007E4F4AE050E0C8010E94D42D80E08093C5
:1025100068048AE0F801A9E6B4E001900D928A957A
:10252000E1F742C060916B048AE0ECE6F4E0D80188
:1025300001900D928A95E1F7683068F4FAE06F9F98
:10254000B001112467577E4F4AE050E0C8010E9455
:10255000162E80E001C08FEF809368040E947518EA
:1025600023C08FEFD4CF60916B048AE0ECE6F4E0F7
:10257000D80101900D928A95E1F7643068F42AE061
:10258000629FB001112467527E4F4AE050E0C801BB
:102590000E94162E80E001C08FEF809368040E9495
:1025A0001C1802C0F092680488E6C82E84E0D82E79
:1025B0008091B30484FD03C00E941C25F9CF43EB36
:1025C00054E068E0C6010E94732638E0C30ED11CB7
:1025D00048E8C41644E0D40659F78091B30484FD5A
:1025E00003C00E941C25F9CF43EB54E060E080E07B
:1025F00090E00E94732610928804C0CAF8942AB111
:102600005B9A822F8C608AB99BB18CE098279BB92A
:102610005FE798E3A1E051509040A040E1F700C08F
:1026200000009BB189278BB92AB95B987894A6CA18
:1026300086E290E00E94E42D10926A0410926B04EE
:1026400010926C0480936D04AFCFECEFF2E08481C4
:1026500095812AE030E0B9010E942E2E6093150189
:1026600086818093140182858093130184858093F1
:10267000120186859785B9010E942E2E6093110163
:10268000808980931001828980930F0184898093CF
:102690000E0108958091FC029091FD029093170124
:1026A000809316010895CF93DF9300D000D01F923E
:1026B000CDB7DEB79093D3018093D201811520E28C
:1026C000920748F40F900F900F900F900F90DF91AA
:1026D000CF910C94492D8EEF89838A831B820E94AF
:1026E0006F278160782F9D838C8349815A816B810C
:1026F0008D810E94E22A0F900F900F900F900F9003
:10270000DF91CF910895CF93DF9300D000D01F9237
:10271000CDB7DEB79093D3018093D201811520E22B
:10272000920748F40F900F900F900F900F90DF9149
:10273000CF910C94632D8EEF89838A8381E08B8304
:102740000E946F278160782F9D838C8349815A81F5
:102750006B818D810E94E22A0F900F900F900F9055
:102760000F90DF91CF910895BC014091F8028091C4
:10277000F902942F981729F1292F30E0F901EE0F73
:10278000FF1FE051FD4F0190F081E02DE617F707A4
:1027900099F487E0869FF001879FF00D1124EC5299
:1027A000FD4F81E0848394130CC02F5F3F4F237053
:1027B00033272093F80208952F5F3F4F922F937095
:1027C000D9CF0895EF92FF920F931F93CF93DF938A
:1027D000809173028823F1F10091FD018CE0F82EC5
:1027E00080917302081790F5EE24E394E00EE092D6
:1027F000FD0110E0F09EE001F19ED00D1124CC58B7
:10280000DD4F4B815C81698188810E94FF288111A5
:102810001BC08E819F81892B21F488859985019623
:1028200051F4288139814A815B816C817D818E815F
:102830009F810E94A91EF09EF001F19EF00D1124CF
:10284000EC58FD4F148213820E2DCACF10927302E2
:102850001092FD01DF91CF911F910F91FF90EF90AA
:1028600008951092FC011092FB01E4EDF2E08581E5
:10287000811102C014821682379682E0E03FF80789
:10288000B1F7089580911801877F8093180182E045
:102890000E9430238091180184FF06C08F7E8093B0
:1028A000180182E00E943E238091180185FF06C036
:1028B0008F7D8093180180E20E943E230C94B52303
:1028C000662329F0209121032260209321039C019B
:1028D0003056211540E2340720F0305E211530419A
:1028E00008F499270C94632D009741F0EFE9FFE07D
:1028F0003197F1F700C000000197F6CF0895AF922D
:10290000BF92CF92DF92EF92FF920F931F93CF93DC
:10291000DF935C017B01C42E89018091180182FF45
:102920008DC0C091F901D091FA01CA15DB0521F0E3
:10293000A114B10409F082C0809118018B7F8093AB
:10294000180181FD11C08091F7019091F801A70154
:10295000481B590B81E02091160130911701421755
:10296000530718F480E001C081E08170D82E809177
:102970001801D0FA81F980931801FE01FF2784E045
:10298000F695E7958A95E1F79E012F703327EE0FB4
:10299000FF1FE952FE4F81E090E002C0880F991FAF
:1029A0002A95E2F7DD2029F020813181822B932BBB
:1029B00006C0809590952081318182239323918355
:1029C00080838091D60181FF08C0809118018061C9
:1029D0008093180182E00E9437238091D60185FF01
:1029E00008C08091180180628093180180E20E94E3
:1029F0003723A8016D2DCE010E946014CC2031F048
:102A00008091170385FF02C086FF36C080911A03AC
:102A100090911B030E9474148091F9019091FA0126
:102A20009C013056211540E2340720F0305E21151C
:102A3000304108F499270E94492D18C09501332789
:102A4000C5019056811540E2940720F0905E8115F3
:102A5000904110F4C90101C0C5010E94492D809127
:102A6000F9019091FA01A816B90611F40E944214D6
:102A7000F092F801E092F701DF91CF911F910F9151
:102A8000FF90EF90DF90CF90BF90AF900895CF93DD
:102A9000DF93EC010E94831380911A0390911B0332
:102AA0000E947414CE01DF91CF910C9453130F93B5
:102AB0001F93CF93DF930CEF12E0C7E6D1E0CE0176
:102AC0000E94E42DF80181938F012196C938F1E02D
:102AD000DF07A9F7C0E0D0E0FE01E65AFC4F859180
:102AE0009491009711F0FC0109952896C839D105F9
:102AF00099F7DF91CF911F910F9108950F931F9335
:102B0000CF93DF930CEF12E0C7E6D1E0CE010E9435
:102B1000E42DF80161918F01681719F0CE010E9430
:102B2000F22D2196C938F1E0DF0781F7DF91CF91CF
:102B30001F910F910895ECEFF2E0128E138E8FEA41
:102B400090E09183808385E0848F88E893E193838C
:102B500082834CE251E05583448322E330E03783A3
:102B6000268385E090E0918780878AE090E09387D4
:102B7000828764E170E0758764875787468744E6FB
:102B800050E0518B408B48E050E0538B428B48E241
:102B900050E0558B448B378B268B28EC30E0318FFF
:102BA000208F158E978F868F80E590E091A380A36C
:102BB0000E947E150C945715CF93DF93C1E0D2E0AD
:102BC00060E0CE010E94F22D2196C11584E0D80765
:102BD000B9F7DF91CF910895883080F49B01982F49
:102BE0008AE0989FB001112467577E4F4AE050E079
:102BF000C9010E94D42D80E090E008958FEF9FEFEF
:102C000008950F931F93CF93DF938C01862F60EA73
:102C100071E00E94EC15892BD1F4C091A001D091F4
:102C2000A1012097A1F0F8018081833039F4CE0111
:102C30000E944715CE010E94471502C0843038F02B
:102C4000CE01DF91CF911F910F910C944715DF9129
:102C5000CF911F910F9108950F931F93CF93DF93FF
:102C60008C01EB0160EA71E08C2F0E94EC15892B3E
:102C700009F06DC0DD27F8018081813041F4918534
:102C8000911115C09285992391F082E010C0823095
:102C900049F4F8018185811107C08285811106C040
:102CA00083E005C086E003C085E001C084E0C8562B
:102CB000DE4F88838330B1F028F4813071F08230A8
:102CC00031F045C08430A9F0853079F140C0809161
:102CD000A2019091A3010097A1F58091A00190918C
:102CE000A10120C08091A4019091A5010097E9F075
:102CF00028C08091A6019091A701009711F58091BD
:102D0000A0019091A101009749F00E944715809180
:102D1000A2019091A301009781F013C08091A201BC
:102D20009091A301009799F00CC08091A00190911F
:102D3000A101009761F00E9447158091A001909138
:102D4000A101DF91CF911F910F910C948313DF911B
:102D5000CF911F910F9108950F931F93CF93DF93FE
:102D60008C01EB0160EA71E08C2F0E94EC15892B3D
:102D700009F046C080911A0390911B030E947414BD
:102D8000DD27C856DE4F8881F80110821882833013
:102D900079F048F4813041F1823091F58091A201BF
:102DA0009091A30109C0843051F08530E9F028C02A
:102DB0008091A4019091A5010097B1F01BC0809172
:102DC000A6019091A7010097A9F42091A00130914C
:102DD000A1018091A2019091A3012115310541F03B
:102DE000009741F4C90106C08091A0019091A10112
:102DF000009731F0DF91CF911F910F910C945313F5
:102E0000DF91CF911F910F9108950F931F93CF934F
:102E1000DF93843058F5643048F54A3038F5211591
:102E20009CE5390731F4E0910C01F0910D01EF2B95
:102E3000E9F08901C42FD0E0CC0FDD1F94E1699F38
:102E4000C00DD11D112490E5899FC00DD11D112405
:102E5000612FCE0187960E94F22D602FCE018896B9
:102E6000DF91CF911F910F910C94F22DDF91CF91B3
:102E70001F910F9108956F927F928F929F92AF92C0
:102E8000BF92CF92DF92EF92FF920F931F93CF9357
:102E9000DF93CDB7DEB764970FB6F894DEBF0FBEF1
:102EA000CDBFA0900C01B0900D0181E090E0909317
:102EB0000D0180930C01612CC12CD12C712CE12CC3
:102EC000F12C00E010E046018E0C9F1CF801EE0F83
:102ED000FF1FE80DF91DEC5EFD4F25913491402F49
:102EE000672D862D0E9405170F5F1F4F0A301105B1
:102EF00069F784E1E80EF11C7394E4E07E12E1CFFF
:102F0000F0E5CF0ED11C639484E06812D7CF0E9405
:102F10009B151A8219821C821B821E821D821886B2
:102F20001F8288EC90E09A87898709E811E04AE0DF
:102F300050E0B801CE0101960E94162E065F1F4F89
:102F4000093DE1E01E0799F77E01FBE0EF0EF11C61
:102F50008AE0F70111928A95E9F74AE050E0B8015A
:102F6000C7010E94162E065F1F4F0130F2E01F07B7
:102F7000A1F7B0920D01A0920C0164960FB6F894DF
:102F8000DEBF0FBECDBFDF91CF911F910F91FF909C
:102F9000EF90DF90CF90BF90AF909F908F907F90F9
:102FA0006F9008950F931F93CF93DF93843008F5AC
:102FB0006430F8F44A30E8F4C42FD0E0CC0FDD1FC1
:102FC00024E1629FC00DD11D112430E5839FC00D07
:102FD000D11D1124CE0187960E94E42D90E0182F78
:102FE0000027CE0188960E94E42D9801282BC90164
:102FF00002C080E090E0DF91CF911F910F91089582
:10300000462F2091D4013091D501232B91F47E3F9E
:1030100039F46E3F71F48091D2019091D3010895FB
:10302000843038F4743028F46A3018F4672F0C9424
:10303000D21780E090E00895CF92DF92EF92FF9256
:103040000F931F93CF93DF93CDB7DEB72A970FB6B9
:10305000F894DEBF0FBECDBF88E2EAEAF1E0DF01FF
:103060001D928A95E9F78CE1E4EDF2E0DF011D9213
:103070008A95E9F78AEAC82E81E0D82E7F0109ED0A
:1030800011E0F701D182C0824AE050E0B801CE01E0
:1030900001960E94D42D88E0FE013196D601019060
:1030A0000D928A95E1F789859A85D70113969C93AD
:1030B0008E931297BAE0CB0ED11CE7E0EE0EF11C16
:1030C000065F1F4F0130F2E01F07D9F62A960FB6B0
:1030D000F894DEBF0FBECDBFDF91CF911F910F914E
:1030E000FF90EF90DF90CF9008958F929F92AF92D4
:1030F000BF92CF92DF92EF92FF920F931F93CF93E5
:10310000DF93CDB7DEB72A970FB6F894DEBF0FBEB8
:10311000CDBF04E213E0E12CF12C81E0C82E86E162
:10312000D82E9CE2A92E96E1B92E2CEA822E26E119
:10313000922EF801D182C082B382A28295828482CB
:10314000F58AE48ABE016F5F7F4F8E2D0E94EC15D9
:10315000892B29F489859A85F801938B828BFFEF5F
:10316000EF1AFF0A0A5E1F4F88E0E816F10409F71C
:103170002A960FB6F894DEBF0FBECDBFDF91CF9178
:103180001F910F91FF90EF90DF90CF90BF90AF9085
:103190009F908F900895CF93C82F811102C06FEF39
:1031A00001C068E383E290E00E94F22DC11102C0E9
:1031B0006FEF01C061E084E290E00E94F22DC11146
:1031C00002C06FEF01C06BEC85E290E0CF910C94F0
:1031D000F22D80E00E94CB1860E086E290E00E9431
:1031E000F22D0E943B170E94DC1581E00C94CB1855
:1031F00083E290E00E94E42D883381F484E290E041
:103200000E94E42D813051F485E290E00E94E42D8B
:1032100091E08B3C09F090E0892F01C080E0817043
:1032200008950E946F2720919401211104C02091DC
:103230009501222321F09093910180939001209198
:103240009601211104C020919701222321F090932F
:103250008F0180938E01E091D603F091D7033097D0
:1032600049F082E0809392010480F581E02D82E9AB
:1032700091E009940895803F39F48091950187FF8A
:103280006AC01092950167C0813F29F48091950131
:103290001816BCF360C090919401823F29F497FF07
:1032A0005AC01092940157C0833F19F41916CCF3F9
:1032B00052C090919601893F31F419160CF04BC021
:1032C0001092960148C08A3F19F497FF44C0F8CF86
:1032D0008B3F39F48091970187FF3DC01092970191
:1032E0003AC08C3F29F4809197011816BCF333C083
:1032F000843F21F4809193018E7F17C0853F21F494
:10330000809193018D7F11C0863F21F480919301BC
:103310008B7F0BC0873F21F480919301877F05C08D
:10332000883F31F4809193018F7E8093930113C085
:103330008D3F21F480918D018E7F0BC08E3F21F453
:1033400080918D018D7F05C08F3F29F480918D0183
:103350008B7F80938D0180919401811106C08091B3
:103360009501811102C010928C018091960181110A
:1033700006C080919701811102C010928B010895BF
:1033800080918D0180FF08C060910F0170E07595FC
:1033900067957595679521C081FF06C060910F0103
:1033A00070E07595679519C082FF04C060910F01A8
:1033B00070E010C090918B01992399F060910E01FB
:1033C0009617A0F780910F01899FC001112470E02A
:1033D0000E94422E6038710540F46115710519F4A0
:1033E00006C061E070E0862F08958FE7089581E0C0
:1033F0000895803F21F40E947C2D819504C0813F77
:1034000029F40E947C2D809395010895823F21F438
:103410000E947C2D819504C0833F29F40E947C2D5D
:10342000809394010895893F19F40E94C01905C042
:103430008A3F31F40E94C0198195809396010895C6
:103440008B3F21F40E94C019819504C08C3F29F460
:103450000E94C019809397010895843F21F48091C0
:103460009301816017C0853F21F4809193018260B0
:1034700011C0863F21F48091930184600BC0873F87
:1034800021F480919301886005C0883F31F48091D8
:10349000930180618093930108958D3F21F4809181
:1034A0008D0181600BC08E3F21F480918D0182607F
:1034B00005C08F3F29F480918D01846080938D0138
:1034C000089580E090E00E94FD2780E090E00E9457
:1034D000E72710922103109263020E94B523E2E9CC
:1034E000F1E086E0DF011D928A95E9F710928C01E8
:1034F00010928B0110928D010C941119CF92DF92D2
:10350000FF920F931F93CF93DF936C0100919A0466
:1035100080916702082BC7E0D0E010E0C8010C2EB4
:1035200002C0959587950A94E2F780FD04C0219723
:10353000A8F7F12C09C0FC2EB6018C2F0E940018B0
:103540000E94FC20019799F38F2DDF91CF911F915D
:103550000F91FF90DF90CF900895CF93DF93EC0110
:103560000E947E1ABE010E9400180E94FC20DF917A
:10357000CF9108959E3F61F12AE0929F800D112422
:10358000682F669566956695982F977083E0689F7B
:10359000B001112440E050E080E0FB01E40FF51F92
:1035A000E250FE4F208130E0092E02C0369527956B
:1035B0000A94E2F721703327042E01C0220F0A94E7
:1035C000EAF7822B4F5F5F4F4330510531F7089583
:1035D00080E008959E3F51F12AE0929F800D1124D2
:1035E000E82FE695E695E695877051E001C0550F06
:1035F0008A95EAF783E0E89FF0011124E250FE4F3C
:1036000020E030E070E04081CB01022E02C09695B0
:1036100087950A94E2F78170819584278523842712
:1036200081932F5F3F4F2330310569F708958093D1
:103630009A040C94611A21E030E001C0220F8A95AF
:10364000EAF7209580919A0482230C94171B21E0BD
:1036500030E001C0220F8A95EAF780919A04822B0C
:103660000C94171B809367020C94611AE92FE29562
:10367000EF704E2F50E0FA013297EE30F105B0F4C2
:10368000E25BFF4F0C94562E803F91F018F4883E79
:1036900068F40EC0843F51F40BC0883E48F0813F6F
:1036A00029F406C093FB882780F9089580E00895E7
:1036B00081E00895FC0186819781009719F00E94AE
:1036C000FC2004C0808191810E94AD1A0E94361BAB
:1036D00008951092D60186E0EFE0F2E0DF011D923E
:1036E0008A95E9F70C94611A882321F00E9430230F
:1036F0000C94B5230895882339F090912103892BE8
:10370000809321030C94B5230895882321F00E940F
:1037100037230C94B5230895882321F00E943E237B
:103720000C94B52308958823A9F19CEF980F913A42
:1037300060F4EDE0F2E09281891301C012823196CB
:1037400092E0E331F907B9F70DC090E2980F983095
:1037500058F4877091E001C0990F8A95EAF7892F94
:103760000E9437230C94B5239BE5980F933020F4E7
:1037700080E090E00C94FD2798E5980F973120F4B5
:1037800080E090E00C94E727803F20F00E943B19F6
:103790000C9411190895CF93882309F455C0C82FAC
:1037A0008CEF8C0F813AF8F4EFE0F2E085E192E0E3
:1037B0002191C21721F08E179F07D1F70EC0EDE0BF
:1037C000F2E083E192E02281C21301C012823196BD
:1037D0008E179F07C1F70E94B5236C2F8DE092E0F2
:1037E0000E94CD270CC080E28C0F883058F4C7703F
:1037F00081E001C0880FCA95EAF70E943E23CF916D
:103800000C94B523EBE5EC0FE33040F4F0E0EC5C16
:10381000FE4F808190E0CF910C94FD27E8E5EC0FFE
:10382000E73150F4F0E0EE0FFF1FE95CFE4F8081BE
:103830009181CF910C94E727C03F30F08C2F0E94EC
:10384000F919CF910C941119CF9108951F93CF932B
:10385000DF93182F893329F4C0911C03D0911D03E5
:1038600004C0C0911A03D0911B03812F0E94CB1B6F
:10387000209741F08FE99FE00197F1F700C0000029
:103880002197F6CF812FDF91CF911F910C94931B3D
:103890002F923F924F925F926F927F928F929F9260
:1038A000AF92BF92CF92DF92EF92FF920F931F934E
:1038B000CF93DF93CDB7DEB765970FB6F894DEBF31
:1038C0000FBECDBF8C0185E0F801DE01519601905D
:1038D0000D928A95E1F7D8014C9011965C90119762
:1038E0001296EC9012971396CD90DC90149760E0AE
:1038F00085E192E00E94D42A85E1A82E82E0B82ECC
:103900008090180290901902A40160911602809193
:1039100015020E94FF28F82E8111E5C13090170290
:10392000F601E819F9094F0160E0332009F469C193
:10393000C5010E94D42A6090140370901503209052
:103940001A028614970408F014C14091180250918D
:103950001902B0901502A0901602822D807F6A2D68
:1039600009F097C08B2D0E94FF28811124C0D80137
:1039700011968C9111978A111EC08C918B111BC0CE
:1039800020911B0230911C0216968D919C911797E5
:103990002817390781F4E1100EC0822D8F708061E5
:1039A00080931A0285E192E00E94BD0480911A0280
:1039B000F8018583B4C1F4EF6F16F1E07F0620F4BF
:1039C0008091190380FF21C0A601652D842D0E94DE
:1039D000FF28811103C081E08E2502C080E090E0C5
:1039E00080FF13C04E2D652D842D0E94F623882361
:1039F00061F085E192E00E94BD04E5E1F2E088E03B
:103A0000DF011D928A95E9F78AC1A601652D842DF3
:103A10000E94FF28811103C081E08E2502C080E052
:103A200090E0B82FB170CB2E80FF2AC04E2D652DAF
:103A3000842D0E94F623D82E811122C0498A5A8AE9
:103A400089899A890E94AD1A292F22952F702230D8
:103A500018F0243078F405C09F7049F0811107C038
:103A60000DC09F7021F0F8019581907F39F0805E44
:103A7000883020F0C8010E94BD04DC2CFD2C4FC111
:103A8000EE2009F44BC180911A02816080931A02E2
:103A900046C18B2D0E94FF28811124C0D8011196A8
:103AA0008C9111978A111EC08C918B111BC0209193
:103AB0001B0230911C0216968D919C911797281726
:103AC000390781F4E1100EC015962C92C8010E94AE
:103AD000BD0488E0F801A5E1B2E001900D928A955D
:103AE000E1F76FC0C8010E945A1B8823E1F1EE2064
:103AF000D1F120911A02822F82958F7090E0029767
:103B0000A4F080911502909116029A8789871B86EE
:103B1000DD86CC862E8780911B0290911C02988BAB
:103B20008F87CE0109960E94BD0488E0F801A5E1C7
:103B3000B2E001900D928A95E1F70E94202416C010
:103B4000F0901502909016024091180250911902BF
:103B5000692D8F2D0E94FF28882399F0C8010E94AB
:103B60005A1B811130C0C8010E94BD04FF24F39488
:103B7000D6C0822D807F21F785E192E00E94BD04AE
:103B8000ACC0D80111968C9111978911E7CF8C9117
:103B90008F11E4CF20911B0230911C0216968D915B
:103BA0009C91179728173907C9F6E110D7CF1596BA
:103BB0002C92C8010E94BD0488E0F50111928A95FB
:103BC000E9F7F32CACC0EE2071F220911A02822F9B
:103BD00082958F7090E002970CF4A7CF8091150228
:103BE000909116029A8389831B82DD82CC822E8378
:103BF00080911B0290911C0298878F83CE010196C1
:103C000092CF85E192E00E94D42A80911403909192
:103C100015038816990608F060C0FE2CEE2009F402
:103C2000A2CFE0901502D090160240911802509158
:103C300019026D2D8E2D0E94FF28811140C0D801E0
:103C400011968C9111978D113AC08C918E1137C0BD
:103C500020911B0230911C0216968D919C91179712
:103C60002817390761F58091190382FD1FC08091E3
:103C70001A0280FD1BC082958F70482F50E04115BD
:103C80005105A1F020911A0215962C9315974F30EB
:103C9000510549F08F5F982F9295907F822F8F70FA
:103CA000892B15968C93C8010E94BD0488E0F80109
:103CB000A5E1B2E001900D928A95E1F730C0C8010C
:103CC0000E945A1B811131CF80911A02816080932A
:103CD0001A02C8010E94BD0422C088E0F5011192B9
:103CE0008A95E9F71CC0EE2009F43DCFC8010E9477
:103CF0005A1BF82E882309F436CF88E0F801A5E195
:103D0000B2E001900D928A95E1F7809115029091B1
:103D100016020E94AD1A0E94202401C0F12C8F2DA2
:103D200065960FB6F894DEBF0FBECDBFDF91CF9181
:103D30001F910F91FF90EF90DF90CF90BF90AF90C9
:103D40009F908F907F906F905F904F903F902F90BB
:103D50000895EF92FF920F931F93CF93DF93CDB708
:103D6000DEB760970FB6F894DEBF0FBECDBF2987D0
:103D70003A874B875C876D877E878F87988BCE01CC
:103D800009960E94481C81114AC088E0FE013996BC
:103D9000DE01119601900D928A95E1F7E984FA848B
:103DA0000C851D85A8016F2D8E2D0E94FF28811185
:103DB00036C0A0911D02B0E0CD0101968770992711
:103DC00020915E0230E08217930781F1E982FA8246
:103DD0001D830C8393E0AA0FBB1F9A95E1F7A25EA7
:103DE000BD4F98E0FE01319601900D929A95E1F752
:103DF00080931D020E94162412C028E0829FC001F9
:103E00001124825E9D4F0E94481C8823E1F080911E
:103E10005E0290E001968770992780935E02809100
:103E20005E0290911D028913E8CF0DC00E94691BAC
:103E300010921D0210925E02E5E1F2E088E0DF01DF
:103E40001D928A95E9F760960FB6F894DEBF0FBE13
:103E5000CDBFDF91CF911F910F91FF90EF9008950B
:103E600080E0089590916B0192FF0DC0282F28717A
:103E7000283019F4877F846006C0282F24712430ED
:103E800011F48B7F886093FF0DC0282F2871283193
:103E900019F4877E846106C0282F2471243111F41F
:103EA0008B7E886120916C0120FF0DC0382F387106
:103EB000383019F4877F816006C0382F3171313076
:103EC00011F48E7F886021FF0DC0282F28712831C2
:103ED00019F4877E816106C0282F2171213111F4E8
:103EE0008E7E886194FD877E0895F894E82FE29590
:103EF000EF70F0E031A1282F2F7081E090E001C039
:103F0000880F2A95EAF7982F9095932391A392A171
:103F1000892B82A3789408956F927F928F929F92BB
:103F2000AF92BF92CF92DF92EF92FF920F931F93C7
:103F3000CF93DF93CDB7DEB728970FB6F894DEBFE7
:103F40000FBECDBFAE014F5F5F4F7A0188E0FA012F
:103F500011928A95E9F706E211E06A012AE2622EDF
:103F600021E0722E88248394912CF80180818F3F68
:103F700009F447C0F894E82FE295EF70F0E021A132
:103F80008F70A40102C0440F551F8A95E2F7CA0141
:103F9000922F982B91A392A18095892382A3789444
:103FA00000C0EAE2F1E021E030E0A12CB12C419127
:103FB0004F3F89F0A42FA295AF70B0E090968C91FE
:103FC00090E04F7002C0959587954A95E2F780FD85
:103FD00002C0C90102C080E090E0A82AB92A220FDD
:103FE000331F51E0E433F50711F7F80180818F3F6B
:103FF00011F00E94751FF0EAFA95F1F7F601B1820F
:10400000A0820F5F1F4FF2E0CF0ED11C6016710629
:1040100009F0ABCF48E050E0B7018DE691E00E9497
:10402000632E01E0009709F400E0892B89F088E015
:10403000F701ADE6B1E001900D928A95E1F781E0DC
:1040400080936A020E946F279093690280936802AE
:1040500080916A02882351F18091680290916902EF
:104060000E946027059710F180916D0190916E017B
:10407000909382018093810180916F0190917001F2
:1040800090938401809383018091710190917201DA
:1040900090938601809385018091730190917401C2
:1040A000909388018093870110926A028091190190
:1040B00090911A01019659F110E086E1982E1EC0E8
:1040C000989EF001999EF00D1124EC5DFC4FC28882
:1040D000D388C114D10421F4C0901403D0901503E7
:1040E000989E5001999EB00C1124A5014C5D5C4F27
:1040F0007A01FA01868181110FC01F5F812F90E044
:104100002091190130911A0128173907CCF68091B6
:104110001B01811111C038C0858596850E946027DA
:10412000C816D90650F7C7010E946628C501865DEA
:104130009C4F0E941F28E1CF8091FA029091FB02D0
:10414000009711F10E9460272091FB013091FC0142
:1041500028173907C8F49091F8028091F90298174E
:1041600059F00E941C291092FC011092FB01109240
:10417000FB021092FA0208C00E94E2131092FB02A6
:104180001092FA020E9431148091170380FF1EC022
:104190008091180182FF1AC00E946F272091F701B9
:1041A0003091F801AC01421B530B20911601309164
:1041B00017014217530750F02BE632E041E0BC01F3
:1041C0008091F9019091FA010E947F14802F289626
:1041D0000FB6F894DEBF0FBECDBFDF91CF911F9118
:1041E0000F91FF90EF90DF90CF90BF90AF909F9096
:1041F0008F907F906F900895CF93DF9382389105D1
:1042000069F1B0F48133910509F46FC048F4893243
:10421000910509F465C08A32910509F46BC08AC022
:104220008533910509F457C089339105B9F082C0EF
:10423000833E910571F138F4803E9105B1F0823EE4
:10424000910511F177C0863E9105B9F1873E910540
:10425000C9F1843E910509F06DC024C020916B0125
:1042600020FD53C021FD51C065C080916B0180FDD0
:1042700046C080916C0180FF48C080916B0184FD35
:1042800050C183EE90E04FC180916B0182FF3AC034
:10429000F4CF80916B0182FD35C080916C0180FD6F
:1042A00034C0EBCF80916C0181FF35C080916B01F0
:1042B00084FD37C187EE90E036C180916B0183FFAA
:1042C00027C0F4CF80916B0183FD22C080916C01E7
:1042D00081FD21C0EBCF80916B0185FD1FC021C006
:1042E00080916B0185FD1DC019C080916B0186FD19
:1042F0001BC01DC080916B0186FD19C015C089E3EC
:1043000090E011C182EE90E00EC180EE90E00BC112
:1043100086EE90E008C184EE90E005C189E290E06D
:1043200002C185E390E0FFC08AE290E0FCC081E337
:1043300090E0F9C0811531E5930708F069C0811557
:1043400040E59407F0F09C0174E0369527957A9546
:10435000E1F7922F9370482F437021E030E002C0C4
:10436000220F331F4A95E2F73C68392B982F9F7034
:104370009695969540E2949FC0011124822B932B31
:10438000D2C0883E910568F5803E910508F0CBC00B
:10439000883A9105B8F4853A910548F0855AE82F96
:1043A000F0E0EC5CFE4F808190E09064BCC0813016
:1043B000910509F4B3C008F4B4C08430910508F441
:1043C000B0C0B1C08F3B910508F0ABC0885AE82F50
:1043D000F0E0EE0FFF1FE95CFE4F80819181946455
:1043E000A2C0811520E2920758F4811531E09307AD
:1043F00008F099C0803F910508F493C0906593C080
:10440000811540E4940708F48CC09F70906A8BC0BB
:10441000811525E5920708F042C0811534E5930720
:1044200028F0982F8827846F906A7DC0811543E516
:104430009407B0F09C012370332741E050E002C0A4
:10444000440F551F2A95E2F7282F2695269580E2DE
:10445000289F90011124CA01822B932B9A6863C074
:10446000811522E5920728F4982F8827816F906A9A
:104470005AC09C012370332741E050E002C0440F32
:10448000551F2A95E2F7282F2695269580E2289F2A
:1044900090011124CA01822B932B9C6844C0EC012B
:1044A000811539E59307A8F48115984528F09C2FCC
:1044B0008827806F906A37C0C11586E5D80788F5D0
:1044C0008C2F0E94321F8F7190E0982F8827906266
:1044D0002AC081152AE5920790F48C2F8F700E94D4
:1044E000321F94E0D695C7959A95E1F7CF70D0E04A
:1044F000DC2FCC27D0699E01282BC90114C090560F
:104500008115904270F48D2F8F710E94321F282FD9
:104510002F71CE0199279062922B05C081E090E027
:1045200002C080E090E0DF91CF910895CF9384E0C6
:1045300090E00E94E42DC82F82E290E00E94E42DDA
:104540002C2F30E0A901582BCA01CF9108956AEEB3
:104550007EEF80E090E00E94102E60E082E090E02C
:104560000E94F22D60E083E090E00E94F22D109214
:10457000670260E084E090E00E94F22D60E082E259
:1045800090E00E94F22D60E085E090E00E94F22D24
:1045900060E086E090E00E94F22D6FEF87E090E00F
:1045A0000E94F22D40E050E0BA0188E090E00E94C5
:1045B000042E60E08DE090E00E94F22D40E050E09B
:1045C000BA0188E190E00E94042E60E087E190E06B
:1045D0000E94F22D40E050E0BA018CE190E00E9490
:1045E000042E60E070E080E290E00E94102E40E037
:1045F00050E0BA0188E190E00E94042E80E00E9421
:10460000CB180E94E91840E050E0BA018FE090E03A
:104610000E94042E40E050E0BA0183E190E00C9447
:10462000042E80916602882331F010926602109267
:104630006502109264020895CF9390916C0192FDEF
:104640000DC090916602981749F0C82F0E946F27FD
:104650009093650280936402C0936602CF9108959F
:10466000809590912103892380932103089580955B
:104670009091D60189238093D60108959091D60117
:10468000892B8093D60108951092620210926102E4
:104690001092600208952091620280958223809397
:1046A0006202982F977099F430E0482F082E000C82
:1046B000550B2417350759F090916C0192FD07C0F6
:1046C0008595859585950E941B1B0C944423089520
:1046D000CF93C0916C01C2FB992790F9981799F07C
:1046E00080FBC2F9C0936C0160916B0184E090E0A3
:1046F0000E94F22D6C2F82E290E00E94F22D82E067
:10470000CF910C944B23CF91089590916C0192FD21
:1047100010C098E0899F90011124262B20936202FB
:104720000E94271B0E946F27909361028093600272
:1047300008950C94271B8091FE029091FF02892B13
:1047400089F00E946F272091640230916502AC01CC
:10475000421B530B81E02091FE023091FF02421771
:10476000530708F480E0817008959091D6018091FC
:104770002103892B90916302892B80930D028091F4
:104780006602882301F18091FE029091FF02892B3D
:1047900029F00E949B2381110E94112390910D0208
:1047A00080916602892B80930D02EFE0F2E097E0A2
:1047B00080E0915029F021912223D9F38F5FF9CF26
:1047C00081110E941123E091D603F091D703309715
:1047D00031F00280F381E02D8DE092E0099408959C
:1047E00080915F02811110925F02089520915E0214
:1047F00090911D022917B1F030E0F90153E0EE0F5E
:10480000FF1F5A95E1F7E25EFD4F5181561306C036
:104810005081581303C05281541306C02F5F3F4F7D
:104820002770E8CF80E0089581E0089580915E02CE
:1048300090911D02891719F08F5F8770FBCF089543
:10484000CF92DF92EF92FF920F931F93CF93DF935C
:1048500080911A0282958F7009F05CC080911702D6
:10486000882309F457C0C0915E0280911D02C817C9
:1048700009F450C0F0901502E0901602C0901802A2
:10488000D0901902A6016E2D8F2D0E94FF28D0E036
:1048900081113DC08E0183E0000F111F8A95E1F761
:1048A000F801E25EFD4F81818E1131C080818F1150
:1048B0002EC0828181112BC0E380F480EC18FD08AA
:1048C00060E085E192E00E94D42A809114039091E7
:1048D0001503E816F906D8F480911A028F708061EA
:1048E00080931A02F801ED5DFD4F80818F70806129
:1048F000808385E192E00E94BD04DF91CF911F91FA
:104900000F91FF90EF90DF90CF900C94162421969A
:10491000C770ABCFDF91CF911F910F91FF90EF90B8
:10492000DF90CF900895FC0193819330B9F068F443
:10493000913089F0923009F06EC087E195E0909354
:104940009904809398048BE50895913281F1923215
:1049500009F441C060C082E795E01BC082818130CC
:10496000B1F068F08230D9F0833009F054C08FEC98
:1049700094E090939904809398048CE1089583E1E6
:1049800095E0909399048093980484E008958FEFC4
:1049900094E0909399048093980482E108958DEEB9
:1049A00094E0909399048093980480E10895828123
:1049B000813049F028F0823071F582E695E005C03B
:1049C00089E295E002C082E495E090939904809397
:1049D000980489E00895848195818130910599F04A
:1049E00050F00297C1F48CEE93E090939904809379
:1049F000980481E808958FE894E090939904809357
:104A0000980480E408958DE694E09093990480934F
:104A1000980482E2089580E00895089580919304B7
:104A2000089580919A04982F9670963011F48860BA
:104A300001C0877F0C94171BCF93DF938091C20432
:104A4000835087FDE4C09091C104CCE0D0E0C91B45
:104A5000D109CC53DB4F9091C0049031D0F4883011
:104A600019F010928804D1C080918804E82FF0E0FA
:104A7000E931F105B4F7E859FB4F9E01285F3F4F3C
:104A8000999191932C173D07D9F7885F80938804FB
:104A9000BCC09D3209F0A0C0883009F0B6C083ECDC
:104AA00080939C048AE580931D011092970488816D
:104AB0008076D9F1803209F084C08981813069F42F
:104AC0008C819D81892B09F07CC08AE894E09093C9
:104AD00099048093980488E075C0823041F489E895
:104AE00094E0909399048093980481E06BC08A309D
:104AF00021F48B818093890464C0893009F061C0FE
:104B00008A819B818115924009F0DCC08C819D8156
:104B1000892B09F0D7C081E0809396048E819F8114
:104B20009093950480939404CDC09A811092A5042B
:104B30008981811106C01092A60425EA34E082E042
:104B40003BC0853019F49093C30433C08630B9F468
:104B50008B81813041F0823031F0833021F081321D
:104B600011F0823221F4CE010E94932401C080E032
:104B700090E4909397048F3F09F4A4C023C0883039
:104B800089F0893019F49093920413C08A3069F047
:104B90008B3079F48BE48093A8048093DB048093BA
:104BA000B40407C022E934E002C025EA34E081E021
:104BB00003C025EA34E080E0309399042093980400
:104BC00001C080E09F81911104C09E81981708F474
:104BD000892F80931C0119C08091970487FF15C00D
:104BE0008091940490919504892B09F475C080916B
:104BF0009604813009F070C08881809393041092EC
:104C000095041092940410921C011092C204809199
:104C10001D0184FF4CC080911C018F3F09F447C0E7
:104C2000C82F893008F0C8E08C1B80931C0190913C
:104C30009C0488E8892780939C04CC2359F18091B7
:104C40009804909199042091970426FF12C0ACE932
:104C5000B4E02C2FAC014C595440FA01EA0FFB1F71
:104C6000E4911196EC931197215011962111F5CFF3
:104C700008C0EDE9F4E0DC012C2F3D913193215087
:104C8000E1F701962FEF2C0F820F911D909399045D
:104C9000809398046C2F8DE994E00E947803CC5F98
:104CA000CC3019F08FEF80931C01C0931D0184E17B
:104CB00099B19C70A9F48150D9F71092C304109255
:104CC000BF040EC0888187FF05C08E8190E8909355
:104CD00097047FCF8FEFFACF8EE180931D0195CFA0
:104CE000DF91CF9108951F93CF93DF93162FEA01A1
:104CF000288124FF05C0398128E82327298302C0A1
:104D00002AE52883212FFC01CE010296DC01319196
:104D10003D9321501216DCF3612F0E9478031C5F33
:104D20001883DF91CF911F9108952091DA0424FF19
:104D300005C04AED54E066E00C9473260895909106
:104D40006704981307C02091650430916604261704
:104D50003707B9F080936704709366046093650425
:104D60008093620470936404609363048091DA0416
:104D700084FF07C04AED54E063E082E694E00C94BF
:104D800073260895BC0184E00C949F26BC0183E047
:104D90000C949F26CF93DF93CAE0D0E08091A704C4
:104DA00084FF1AC080916004909161049817F1F01B
:104DB00028E0829FC001112447EA54E068E0805255
:104DC0009C4F0E9473268091600490E001968F7042
:104DD0009927809360040AC00E941C258FE99FE0F8
:104DE0000197F1F700C000002197C1F6DF91CF9144
:104DF0000895CF93DF93EC01A0916104B0E0CD0161
:104E000001968F70992720916004281779F093E01C
:104E1000AA0FBB1F9A95E1F7A052BC4F98E0FE0184
:104E200001900D929A95E1F7809361040E941C25F0
:104E30000E94CA2688E0FE01AAE8B4E001900D9223
:104E40008A95E1F7DF91CF91089598E088E10FB658
:104E5000F894A895809360000FBE90936000A89589
:104E6000F894D8E0CEEF28E3299320E0299314BEEC
:104E7000FFCF089578941F920F920FB60F921124CE
:104E80008F939F93AF93BF938091DC039091DD0349
:104E9000A091DE03B091DF030196A11DB11D8093A7
:104EA000DC039093DD03A093DE03B093DF03BF9197
:104EB000AF919F918F910F900FBE0F901F901895FB
:104EC0009C014FB7F8948091DC039091DD03A09191
:104ED000DE03B091DF034FBF821B930B08952FB702
:104EE000F8948091DC039091DD03A091DE03B091F2
:104EF000DF032FBF08951F920F920FB60F92112458
:104F00008F939F93AF93BF938091DB03811113C065
:104F10008091DC039091DD03A091DE03B091DF036B
:104F20004196A11DB11D8093DC039093DD03A093F6
:104F3000DE03B093DF03BF91AF919F918F910F90EC
:104F40000FBE0F901F9018958091DA03882321F1EE
:104F50001092DB0320E488E190E00FB6F894A89566
:104F6000809360000FBE2093600083B7817F8460D0
:104F700083BF83B7816083BF7894889583B78E7F22
:104F800083BF0FB6F894A8958091600088618093E4
:104F90006000109260000FBE08959C01FC013296E3
:104FA0009FEF80E04191461789F09F3F19F441112E
:104FB00001C0982F8F5F8630A9F79F3F39F0F90124
:104FC000E90FF11D97FDFA956283089508952091E8
:104FD000D8033091D9032817390771F09093D9037A
:104FE0008093D803E091D603F091D703309721F056
:104FF0000084F185E02D099408952091D403309127
:10500000D5032817390771F09093D5038093D40303
:10501000E091D603F091D703309721F00680F78115
:10502000E02D09940895E091D603F091D7033097CD
:1050300021F00190F081E02D099480E00895EF9235
:10504000FF920F931F93CF93DF93FC0122852111D1
:1050500036C0EC01E380F480F7E5FF1A26E12E9DCF
:10506000C0012F9D900D1124DC01AC5DBC4F149646
:10507000ED91FC911597865D9C4F309729F05496E1
:105080006D917C915597099586E18E9D80018F9D4C
:10509000100D11240C5D1C4FF80187810E943723ED
:1050A000F80180850E9430230E94B523188219865A
:1050B0001B861E821D821092230310922203DF9111
:1050C000CF911F910F91FF90EF900895CF93DF93B1
:1050D000FC012189211119C0EC0181E0818B8781BC
:1050E0000E943E23909121038885892B8093210380
:1050F0000E94B523EA81FB81CE010696309729F004
:105100006C897D89DF91CF910994DF91CF910895CA
:105110000F931F93CF93DF93C42FD22FFC01828173
:105120008823C9F0409320030E946F2790931F03A8
:1051300080931E0380E28C0F883008F05BC0C7703C
:1051400081E001C0880FCA95EAF7DF91CF911F91E6
:105150000F910C948C1B80912003481334C08091D4
:105160001E0390911F030E94602720911403309129
:1051700015038217930738F510E21D0FCD17B9F00C
:1051800080E28C0F883040F4C77081E001C0880F46
:10519000CA95EAF70E94851B183028F581E09D2FFB
:1051A000977001C0880F9A95EAF70E948C1B802F98
:1051B0000E94261C1830F0F4D77081E001C0880FDF
:1051C000DA95EAF70AC080E28C0F883098F4C7704D
:1051D00081E001C0880FCA95EAF7DF91CF911F9156
:1051E0000F910C94851B802FDF91CF911F910F9110
:1051F0000C94261CDF91CF911F910F910895452BA0
:1052000041F06F3F41F491E08F3F09F090E0892F2A
:1052100003C081E001C080E0817008951092FB021C
:105220001092FA0210921B018091F9028093F80209
:105230000E9431140C94E2133F924F925F926F924E
:105240007F928F929F92AF92BF92CF92DF92EF9216
:10525000FF920F931F93CF93DF93C091F80297E0D3
:10526000892E01E010E02CE0322E3EEF932E4424F4
:1052700043948091F902C81709F478C0D0E0FE0188
:10528000EE0FFF1FE051FD4F80819181889ED0017C
:10529000899EB00D1124AC52BD4F14962C911497D9
:1052A000211161C050907302E4E7F2E020E030E0A9
:1052B000712C5D01251508F054C0E284F384D501FA
:1052C000CD90DC906FEF7FEF612C462D50E0DA013E
:1052D000AA0FBB1FAC0DBD1D0D90BC91A02D10974A
:1052E00031F0EA16FB0609F4BA016394EECF6F3F82
:1052F000BFEF7B0791F1D80102C0AA0FBB1F6A95CF
:10530000E2F77A2AB80102C0660F771F6A94E2F7C3
:10531000AB0141505109672D70E046175707D9F48A
:10532000329EF001339EF00D1124EC58FD4F889E03
:10533000D001899EB00D1124AC52BD4F12962D9113
:105340003C9113973783268390829182918780873F
:1053500015964C9206C0148213822F5F3F4F3C96E5
:10536000A9CF0E94B4132196C37083CF0E94E21389
:10537000DF91CF911F910F91FF90EF90DF90CF9031
:10538000BF90AF909F908F907F906F905F904F9065
:105390003F900C9431149C013A9521153F4130F512
:1053A000BC0166277270AC01442754709C0122270F
:1053B000387094FF0FC090FF02C080E101C080E010
:1053C000672B09F08062452B09F08064232B79F06C
:1053D00080680895892F8170672B09F08260452BC2
:1053E00009F08460232B19F08860089580E0089507
:1053F000AF92BF92CF92DF92EF92FF920F931F93E3
:10540000CF93DF93EC018AE0A82E2881222309F4B0
:1054100097C0213009F041C08981813039F48E0173
:105420000E5F1F4F8A810E94261C08C0823041F403
:105430008E010E5F1F4F8A810E94CB1BE8017EC048
:10544000833039F48E010E5F1F4F8A810E94931BB7
:10545000F5CF843011F0219671C02A81229680E028
:1054600090E030E0205331092A30310558F4A89EED
:10547000A001A99E500D1124C901840F951F2196EA
:105480002881EFCF009709F459C0EFE9FFE0319789
:10549000F1F700C000000197F5CFE22FF0E0EC54E7
:1054A000FA4FB490822F86958695869590E0FC0100
:1054B000EC55FA4FE4902770F12C022E02C0F594BF
:1054C000E7940A94E2F7F1E0EF22FF24FC01EC56A6
:1054D000FA4FC490D12C022E02C0D594C7940A94DE
:1054E000E2F731E0C322DD24FC01EC57FA4F0491CE
:1054F00010E002C0159507952A95E2F70170112773
:10550000E114F10419F081EE0E94CB1BC114D10407
:1055100019F086EE0E94CB1B8B2D0E94261CCD28F5
:1055200019F086EE0E94931BEF2819F081EE0E947D
:10553000931B012B19F08CE20E94261C219665CF4B
:10554000DF91CF911F910F91FF90EF90DF90CF905F
:10555000BF90AF9008951F93CF93DF9300D000D0FA
:105560001F92CDB7DEB749835A8389819A8166231A
:1055700059F0222349F00E947E1A182F682F898142
:105580009A810E94EA1A03C00E94BA1A182F6981F0
:105590007A81812F0F900F900F900F900F90DF91D5
:1055A000CF911F910C940018FC01262F86819781C2
:1055B000009739F4408151816281738184810C9418
:1055C000AB2A08952F923F924F925F926F927F92F3
:1055D0008F929F92AF92BF92CF92DF92EF92FF9203
:1055E0000F931F93CF93DF93CDB7DEB76A970FB6B4
:1055F000F894DEBF0FBECDBF942F498B252F5A8B59
:105600006B8B7C8B8D8B4C895D89622F892F0E94DF
:10561000FF28811109C08091690190916A0101966A
:1056200090936A01809369018B8981111092210303
:105630008E01075F1F4F88E0F80111928A95E9F704
:1056400085E0FE017196D80101900D928A95E1F7EF
:1056500080916C0182FD28C08091FE029091FF0232
:10566000892B11F10E946F27209160023091610215
:10567000821B930B2091FE023091FF028217930749
:1056800040F08091620282FB992790F981E089279E
:1056900001C080E080FF03C082E00E944B230E9493
:1056A0009B2381110E9411234C855D856A85898524
:1056B0000E94FF288111CAC161E0C8010E94D42A5A
:1056C0006C01873FFCE59F0739F48B858823A9F09F
:1056D00081E080931B01BAC1883F9C4531F48B85E2
:1056E000882359F00E940E29B1C189EFC8168CE5B4
:1056F000D80619F48B85811111C004ED12E0512CEC
:10570000A12CB12C66246394712C33243394FE01B4
:105710003196FF8BEE8BF7E02F2E4DC080911B0151
:105720008823B1F2DFCFC616D70609F097019F5F35
:105730007901292F30E0F901EE0FFF1FE40FF51F6B
:10574000608171816115710571F7FFEFEF16FF063A
:1057500009F430C1F8016481611135C020911B0149
:10576000822F81704B84F80135812681442009F411
:10577000C9C0882309F4C6C0809012039090130317
:10578000332321F1930102C0220F331F9A95E2F7D0
:1057900021503109F801868190E02817390749F135
:1057A0005428FFEFAF1ABF0A095F1F4F24E0A2166B
:1057B000B10409F401C1F80140815181EE24EA9459
:1057C000FE2C90E0B6CF20E030E0CACFA30101C0AC
:1057D000440FEA94EAF7242B26832091FB013091B1
:1057E000FC012815390570F69092FC018092FB01AE
:1057F000C9CF8091FA029091FB02009731F00E948C
:1058000060278816990608F41EC18091F802F0916D
:10581000F902F88FE0E0F0E0288D821709F460C00B
:10582000282F30E0F901EE0FFF1FE051FD4F80807F
:105830009180289CF001299CF00D1124EC52FD4F21
:10584000F080E18050E090E040E0EF2DFE2DE40F8D
:10585000F11DE40FF11DA081B1811097D1F0F80185
:10586000F081F98FF801F181FA8F90E0E98DFA8DDE
:10587000E90FF11DE90FF11D60817181611571055D
:1058800031F0A617B70709F451E09F5FEFCF4F5FE4
:10589000DCCF5523F9F09417C8F0289CF001299C1F
:1058A000F00D1124EC52FD4F3097B1F03482E01727
:1058B000F10709F475CF9091F80289130DC0C90161
:1058C0000196837099278093F80206C0011511058F
:1058D00009F0B9C0E0E0F0E0C901019683709CCF07
:1058E000E017F10709F45CCF90E0FC01EE0FFF1F19
:1058F000E051FD4FB182A082019683709927809379
:10590000F9024ECF311112C0A30102C0440F551F3E
:105910009A95E2F74150510930E042175307E9F5F3
:105920006623E1F1C5010E94B41337C0822F90E0D5
:105930009C0121503109282339230E2C02C0959552
:1059400087950A94E2F7232B31F580FF24C0F801F4
:1059500082819381892BD9F088E0EE89FF891192A9
:105960008A95E9F78EEF89838A830E946F27816089
:10597000582F9D838C83F801828193818F83988730
:1059800029813A814B816D817E810E94A91EF80197
:10599000158281E003C0817001C080E0930101C0E5
:1059A000220FEA94EAF72095F801968129232683AD
:1059B000482EF6CE412CF4CE8B85882381F15520DC
:1059C00071F10E946F279093FB028093FA028091FD
:1059D0007302883008F044C091E0980F90937302EE
:1059E00098E0FE013996DE01119601900D929A958C
:1059F000E1F7ECE08E9FC00111248C589D4F28E008
:105A0000FE013196DC0101900D922A95E1F72FEF0E
:105A10003FEFFC0131872087D386C28621C0909159
:105A2000F8028091F902981719F00E941C2908C009
:105A30000E94E2131092FB021092FA020E943114AB
:105A4000552021F00DC0F8013482AACE29853A856F
:105A50004B855C856D857E858F8598890E94A91E02
:105A60006A960FB6F894DEBF0FBECDBFDF91CF911F
:105A70001F910F91FF90EF90DF90CF90BF90AF906C
:105A80009F908F907F906F905F904F903F902F905E
:105A90000895CF93DF93EC010E94931BCE01805EAB
:105AA0009109089710F0209739F4CE010E94CB2974
:105AB000DF91CF910C94851BCE010E94CB29DF9101
:105AC000CF910C94741BCF93DF93EC01805E91090E
:105AD000089710F0209731F4CE010E94CB290E9444
