:100000000C941A030C9461030C947C030C9461030C
:100010000C9461030C9461030C9441240C946103CF
:100020000C9461030C9461030C9461030C946103C0
:100030000C9461030C9461030C9400240C946103F0
:100040000C9461030C9461030C9461030C946103A0
:100050000C9461030C9461030C9461030C94610390
:100060000C9461030C9461035009500983098309BE
:10007000150A330A790B790B3E0AB10AC40AC40A7D
:1000800017102C10371082118211721081108C10F1
:1000900082119710C110ED102B112E11B612B6124D
:1000A000C812C812BF12C812C812C812B612B612AD
:1000B000C412C812C812C412FD377A585A0000047C
:1000C000E6D6B4460200210116000000742FE5A315
:1000D000E00261011C5D003D8889C65436C3174F9C
:1000E000E4E20E164D853C533C3A18756871F4C72E
:1000F00044ABE53413BAED6CC98780653A10650AE4
:100100007DAC3202D439F09C6CFDE264E7F136C874
:10011000B17FCF0013D128BBF1FE7430170B3F9C89
:100120009E1819E543C1ECA326B34C0C3E23715035
:10013000F730024BEA629848923944D89B69ACA5E3
:10014000765F541C2DCA247D64AF4BB05F50900085
:100150008A5851F23215DDBC408B67C573B00B8BEA
:1001600048568C1A3F1E9FB772C246B5648B7B8A75
:1001700080468020D2B60C68C6BADD942046564E22
:10018000B22EEFDACB8C58CA584E2AFBF2C005A625
:1001900076AF1B2418970548D13C7F09678D7740BF
:1001A00007ADE16678D11B1C63AD7E7452F42485E3
:1001B000518121447D39EE70E6979D4F8DBD7C8441
:1001C000A0B8599395A38835FB49FFA279AC737702
:1001D000FA7A2588DC6A6F42A6EEBF47DBDE0F1A8B
:1001E0009607FBD4C194457A4F461F104BAA37D5CA
:1001F00016B500009BCF5FDE325114A30001B80298
:10020000E2040000CA377334B1C467FB0200000087
:100210000004595A14001A000800150017001C00A9
:1002200018000C001200130004001600070009005B
:100230000A000B000D000E000F0028001D001B001F
:1002400006001900050011001000360037003800C4
:10025000010001000100010001002C002C00010040
:100260000100025101000100010001000100010034
:100270000100010001000100010001000100010076
:100280000100010001000100010001000100010066
:100290000100010001000100010001000100010056
:1002A0000100010001000100010001000100010046
:1002B0000100010001000100010001000100010036
:1002C000010001000100005C0100010001000100CB
:1002D0000100010001000100010001000100010016
:1002E0000100010001000100010001000100010006
:1002F00001000100010001000100010001000100F6
:1003000001000100010001000100010001000100E5
:1003100001000100010001000100010001000100D5
:1003200001000100010001000100010001000100C5
:1003300001000100010001000100010001000100B5
:1003400001000100010001000100010001000100A5
:100350000100010001000100010300000200020091
:10036000FD0200000300010002030000040002007F
:10037000E702CB160500010003030000060002009F
:10038000E902000007000200FF020000080001006F
:100390000403000009000200EB02A6160A00020096
:1003A000ED02A6160B000200EF02A6160C000200DA
:1003B000F102A6160D000200F302A6160E000200BE
:1003C000F502A6160F000200F702A61610000200A2
:1003D000F902A61611000200FB02A6161200020086
:1003E00005030000130002000703000005010902D5
:1003F000A10185020901A1000509190129051500BE
:10040000250195057501810295017503810305019B
:10041000093009311581257F950275088106093853
:100420001581257F950175088106050C0A3802158E
:1004300081257F950175088106C0C005010980A14D
:1004400001850319012AB700150126B7009501752A
:10045000108100C0050C0901A101850419012AA021
:1004600002150126A002950175108100C00660FFEB
:100470000961A1010962150026FF00952075088118
:10048000020963150026FF00952075089102C0053A
:10049000010906A101050719E029E71500250195C5
:1004A0000875018102950175088103050719002966
:1004B000FF150026FF009506750881000508190143
:1004C0002905950575019102950175039103C01CDD
:1004D000037600690061006C003A00660036003463
:1004E0000063003200620033006300000010034C20
:1004F00000450053004F0056004F005A0000001204
:10050000037300710075006100730068006B006286
:100510000000000403090409025B00030100A0FAC3
:100520000904000001030101000921010100012269
:1005300040000705810308000109040100020300CF
:10054000000009210101000122220007058403089F
:10055000000107050403080001090402000103006B
:100560000000092101010001228100070583030821
:10057000000112011001000000085153534C01000A
:100580000102030100000000000000000000000064
:10059000000000000000000000000000000000005B
:1005A00000000000000000007E0F00D4FFFFFFC726
:1005B0000000007800000000000000002A2B280046
:1005C0000000000000000000000000000000002902
:1005D000000000002C1E3420212224342627252E42
:1005E000362D3738271E1F2021222324252633337A
:1005F000362E37381F0405060708090A0B0C0D0EA6
:100600000F101112131415161718191A1B1C1D2F71
:100610003130232D350405060708090A0B0C0D0E91
:100620000F101112131415161718191A1B1C1D2F51
:100630003130354C11241FBECFEFD8E0DEBFCDBF27
:1006400004B603FE27C080911F0490912004A0915E
:100650002104B09122048730904BA740B04BD1F4D5
:1006600010921F0410922004109221041092220470
:1006700014BE84B7877F84BF0FB6F894A895809185
:100680006000886180936000109260000FBEE0E01F
:10069000F8E3099511E0A0E0B1E0EEEEF4E502C068
:1006A00005900D92A436B107D9F724E0A4E6B1E095
:1006B00001C01D92AF31B207E1F70E94D40B0C9438
:1006C000752A0C940000A82FB92F80E090E041E03B
:1006D00050EA609530E009C02D9182279795879563
:1006E00010F084279527305EC8F36F5FA8F3089554
:1006F000EADF8D939D930895CF93CFB7CF93DF9388
:10070000C3954B9BE9F74B9B10C04B9B0EC04B9B7B
:100710000CC04B9B0AC04B9B08C04B9B06C0C091B2
:10072000D303C395C093D3038EC06F93C091F903D5
:10073000DD27C450DC4F2F9365E54B9B03C02F9101
:100740006F91E1CF0F931F934F9320E040E15F93B0
:1007500009B10C7003FB27F93F9350E03BE039C02F
:100760001C7040642F77012F5F5F1EC0406819B175
:100770001C702F7752501FC0406409B12F770C7046
:10078000D1F15F5F00C023C0406219B12F771C70A8
:1007900091F15F5F00C025C00C701027515012F41A
:1007A0005D5F0000115027952C3F19B1C8F61C70F1
:1007B0000127015027952C3FC8F64227499309B1DC
:1007C0000C7010274F73115027952C3FA8F64695B3
:1007D000469519B11C7079F00127015027952C3FDF
:1007E00098F66B5A60F3315009B1B0F600C012E0D0
:1007F0001CBB00271CC03B503195C31BD04012E0EE
:100800001CBB0881033C21F10B3411F12091F7034B
:100810001981110F1213EDCF4A81441F093679F166
:100820000D3211F0013E29F74F7009F0042F0093AB
:100830001E043F915F914F911F910F912F916F91E6
:10084000CCB3C1FD5DCFDF91CF91CFBFCF911895D4
:1008500020911E04222369F31091FA03112309F059
:1008600049C034300AF448C03093FA032093F803A7
:100870001091F9033BE0311B3093F9033DC0009127
:10088000FA030130BCF50AE54F7049F430911B01C1
:1008900034FD33C000931B01C4EDD3E032C04330BC
:1008A00059F0443091F03091DF0334FD26C00093BD
:1008B000DF03C0EED3E025C03091120434FD1DC02B
:1008C00000931204C3E1D4E01CC03091EB0334FD6B
:1008D00014C00093EB03CCEED3E013C0052710E067
:1008E00000C000000BB91AC0052710E0221F1DC070
:1008F00010E021C04AE502C032ED432FC4E1D0E050
:1009000032E01AB11C605B9A0BB11AB95CE020E8C6
:1009100065E320FF05270BB9279517951C3FF0F6D7
:100920006695B8F7B1F720FF05270BB927951795FE
:100930001C3FD0F62795179517FF052700001C3F91
:100940000BB9B0F629913A9519F7037F1091FB0383
:10095000110FC651D0400BB911F01093F70312E0FC
:100960001CBB08601AB1137F402F437F54E05A9597
:10097000F1F70BB91AB94BB95CCF8F929F92AF9236
:10098000BF92CF92DF92EF92FF920F931F93CF937C
:10099000DF9300D000D0CDB7DEB77C01FC014381EE
:1009A0005481618180810E945C258111ECC661E0E7
:1009B000C7010E9404278C01F7018281882309F472
:1009C00081C0C80182519F45409708F097C08FEFC2
:1009D00093E00E94D92981117FC05EEED52ED00E02
:1009E00001EB11E0DD2071F00115F4E01F0709F4BF
:1009F00073C0C8010E94D929811101C0DA940F5F28
:100A00001F4FF0CF19821A821B821C82AA24AA943B
:100A100068012FEFC21AD20AC8010E94D92989831E
:100A20001A82882309F458C0813009F046C0480171
:100A300082E0880E911CC6010E94D9298A838823EE
:100A400009F44AC09FEF980F933060F4680193E077
:100A5000C90ED11CC4010E94D9298B8381112DC0DC
:100A60008601D6CF843011F06401FACFC4010E9410
:100A7000D929B82E6801E4E0CE0ED11CC801039636
:100A80000E94D929BB2041F1882331F1282F30E081
:100A900021503109A29EA001A39E500D11248B2D3F
:100AA00090E00197840F951F0197D0F2EFE9FFE0E6
:100AB0003197F1F700C00000F7CFCE0101960E94F8
:100AC0002826CECF00318FE5180709F05CC381E0FE
:100AD0000E948D120E94D72180914D02877009F4E7
:100AE00052C6F7018281882309F44DC680916A01BC
:100AF00082FD49C682E00E94112045C60031FFE513
:100B00001F0711F481E005C001312FE5120721F420
:100B100082E00E949912DECF8091020380FF6AC1B9
:100B20000E9435246C01F70182818823D9F18091DC
:100B3000180182FF08C026E532E040E0B60180E0FF
:100B400090E00E94B7170B31FCE51F0779F00C31DC
:100B50002CE5120789F00A318CE51807A1F4809181
:100B60001801982F909590FB80F909C08091180189
:100B700081608093180107C0809118018E7F809357
:100B800018010E946217C80190568115E0E29E0785
:100B900020F0905E8115904180F51092F401109242
:100BA000F30128C1013E110521F4809118018F7EC7
:100BB00006C0053E110531F4809118018F7D8093A8
:100BC00018011BC0C8019056811520E2920720F041
:100BD000905E8115904188F48091180182FF0AC1CE
:100BE0008091040381FD06C126E532E040E0B601B4
:100BF00080E090E00E94B717FDC08091180180FF4F
:100C0000F9C0F70182810832110538F40E3111055F
:100C1000B8F40430110578F4C9C00933110538F46B
:100C20000D32110590F40B32110579F0BFC0043676
:100C3000110559F0BBC09091020394FDB7C009C0E3
:100C40009091020393FDB2C004C09091020392FD03
:100C5000ADC0882309F4A3C02091D0018091510236
:100C6000982F922B392F3D7F79F11092F401109239
:100C7000F3013091020331FD27C0F80143E0F695FE
:100C8000E7954A95E1F7EE71FF27EF52FE4F980185
:100C90002F70332781E090E002C0880F991F2A95BA
:100CA000E2F780959095208131818223932391836F
:100CB0008083A70160E0C8010E94801780915102E3
:100CC0008D7F0E94E91F67C038E0F701A6E5B2E01A
:100CD00001900D923A95E1F71092580210925A0243
:100CE000109259024091F3015091F4010417150735
:100CF000D1F53091020335FF36C04091180141FF14
:100D000002C036FF30C04091F1015091F201B601AE
:100D1000641B750B4091FF02509100036417750727
:100D200010F521FF08C0809118018061809318019F
:100D300082E00E94FD1F8091D00185FF08C0809154
:100D4000180180628093180180E20E94FD1F60916B
:100D5000180166956170A7018091F3019091F401EB
:100D60000E948017B9CE969591702091180190FB42
:100D700021F9209318018D7F0E94E91F1093F4013F
:100D80000093F301D092F201C092F1018091180119
:100D900084608093180182E00E9411209DCE97010B
:100DA00040E0B601C8010E94B71796CE882311F122
:100DB0001092F4011092F301033FFCE51F07B9F113
:100DC00078F4083D8CE5180761F1093D9CE51907A9
:100DD00009F44EC0073DECE51E0709F057C01BC0E3
:100DE000053FFCE51F07A1F168F1063F8CE51807F8
:100DF000C9F14CC0033FFCE51F07C9F0F0F4083D02
:100E00008CE5180771F0093D9CE5190789F1073D4C
:100E1000ECE51E07B1F506E221EE41EE67ED7CE55B
:100E20002CC007E225EE45EE68ED7CE526C006E223
:100E300021EE40EE63EF7CE520C0053FFCE51F0797
:100E400039F060F407E225EE44EE64EF7CE515C06E
:100E500006E221EE42EE65EF7CE50FC0063F8CE531
:100E6000180779F407E225EE46EE66EF7CE505C04B
:100E700008E221E045EE69ED7CE5C7010E94E5242A
:100E80002BCEF7012281222309F430C110920B03EB
:100E90000330FDE51F0758F40A3F2CE5120760F404
:100EA000C80182509C45449708F01FC105C0013617
:100EB0008DE5180709F019C10E94631F90936A011C
:100EC0008093690100319CE5190709F4CAC008F054
:100ED00041C00830FCE51F0709F4A4C0F0F4043059
:100EE0008CE5180709F48CC068F40230ECE51E07A5
:100EF00009F482C003301C4509F0E7C08091690104
:100F00008260E1C006302CE5120709F483C008F0C6
:100F100085C0809169018860D6C00C309CE51907B6
:100F200009F490C068F40A30FCE51F0709F47EC09C
:100F300008F084C00E94DB12809169018068C3C000
:100F40000E308CE5180709F481C008F086C0809146
:100F5000690194C00C3FECE51E0709F47BC038F52D
:100F600004312CE5120709F49AC058F402319CE5CB
:100F7000190709F47AC008F07EC0809169018F7B5F
:100F8000A2C00A3FFCE51F07F1F108F03FC00531A0
:100F90001C4509F09AC08091690182FB222720F943
:100FA00091E0922790FB82F990FB83F98CC00115A8
:100FB0009DE5190709F467C050F480916A010E3F5E
:100FC000FCE51F07C1F108F05BC08D7F65C00230F2
:100FD0008DE5180709F471C008F46DC001361D4590
:100FE00009F073C08091690184FB222720F991E008
:100FF000922790FB84F967C080916901816063C08A
:101000008091690116C080916A0116C080916A01C1
:10101000826042C080916901806155C08091690100
:10102000806251C08091690180644DC080916901E6
:101030008860846048C0826081602EC080916901B0
:101040008E7F41C0809169018D7F3DC08091690193
:10105000877F39C080916A0114C0809169018F7EB9
:1010600032C0809169018F7D2EC00E94DB12809179
:1010700069018F7728C080916901877F8B7F23C0AA
:101080008D7F8E7F09C080916A01982F9095917015
:101090008E7F892B90FB81F980936A0116C00E9494
:1010A000DB128091690187FB222720F991E09227CA
:1010B00090FB87F908C061E001C060E08EE090E03D
:1010C0000E94E72902C08093690160916901109133
:1010D0006A0184E090E00E94E729612F82E290E0BB
:1010E0000E94E7290E94DB12F7CC21E006319CE543
:1010F000190709F04FC08091D001982F9A7A30914A
:10110000010330FF04C0482F447409F090E031FF20
:1011100004C0482F417109F090E032FF04C0482F0D
:10112000487809F090E033FF02C0827261F4222314
:10113000A1F081E0911101C080E0809366019923C4
:1011400031F065E305C0222341F01092660169E2A7
:1011500088EF91E00E94932413C080916601882358
:1011600011F085E301C089E2E8EFF1E02EEF31E014
:101170009281891301C0128231962E173F07C1F761
:101180000E947B20A9CC01319FE5190709F0C4CC4E
:1011900082E09ECCF7018281882389F10A35FDE542
:1011A0001F0741F150F401158CE51807A9F00E3D19
:1011B0001C4529F50E94741F8FCC0B35EDE51E07E9
:1011C000D9F00C351D45D9F480916A0182FB88273E
:1011D00080F991E0892711C00E94DB122FEF84E390
:1011E0009CE0215080409040E1F700C000000E9448
:1011F000EB2372CC81E001C080E00E942E20F70139
:10120000868197810097B9F4F7018281008111816D
:10121000882349F0C8010E94F011D82E682FC80118
:101220000E945C1204C0C8010E942C12D82EB80182
:101230008D2D0E94F5190E94C91D182F092FF70145
:10124000B280C580C2943FE0C32280914D02877076
:10125000B9F0BB20A9F0892F807F803421F080E293
:10126000810F883068F080916A0182FD09C082E0B8
:101270000E94112080914D028770AA24A3948111AD
:10128000A12C902E92942FE09222892D90E08C3008
:10129000910508F02EC2FC01EC5CFF4F0C944B2A28
:1012A000902F9F70802F807FD92E19F0D29490EFCD
:1012B000D922BB20A9F0DD2009F4FBC180E2810F17
:1012C000883010F0111104C08D2D0E94042005C03B
:1012D0008091CF01D82AD092CF010E947B20E9C112
:1012E000812F0E940913DD2009F403C280E2810FDF
:1012F000883080F1112371F1D0948091CF01D822F0
:10130000D092CF012AC0902F9F70802F807FD92E3E
:10131000803219F0D29480EFD822112321F01130BD
:1013200009F45CC067C080916A0182FF19C0BB20CC
:1013300059F0DD2029F08D2D0E9404200E947B2091
:1013400080E00E944113D5C180E00E940913DD2096
:1013500009F4CFC18D2D0E94FD1F0E947B20C9C1C1
:10136000BB2001F1CC20D1F0F1E0CF1206C080917A
:1013700051028D290E94E91FBCC180910303823074
:1013800068F0C8120BC00E94DE1F80914A02D8127A
:10139000D0924A028D2D0E940213ABC1809151025E
:1013A0008D29F9CFCC2079F08091030321E0C2127E
:1013B00010C0823008F49DC18091D0018D2109F4C4
:1013C00098C10E94B6200E94DE1F8D2D0E94FB1244
:1013D00090C18230C0F3C812F6CF8BC1BB2029F078
:1013E00085E08C1508F485C1D5CF94E09C1508F4F0
:1013F00080C1EBCFBB20B1F0CC2061F220E0F7013F
:10140000408151816281738184810E94DB268091B9
:10141000040381FD4EC1F701858180FF4AC18F70B1
:101420008583B8CFC1104EC1D0CF802F86958695C9
:10143000837019F0813061F05CC1BB2021F0812FF5
:10144000902F937002C080E090E00E94C32457C1A7
:10145000BB2021F0812F902F937002C080E090E09C
:101460000E94AD244CC1812FBB2019F00E94DE1BCD
:1014700002C00E94D11A0E94A71A41C1802F837016
:10148000A1F5B1103AC1412F429546954770440FDE
:10149000440F212F2F7030E0C901042E01C0880FA6
:1014A0000A94EAF714FF08C02FE030E001C0220FD1
:1014B0004A95EAF7209501C020E0302F3695369501
:1014C0003370323069F040F440915202313019F0FB
:1014D000822B842302C0842B822B0E94A4120DC174
:1014E000282B809152028227F8CFBB2019F0802F41
:1014F000817001C08695882309F4FFC0412F429571
:1015000046954770440F440F212F2F7030E0C901DA
:10151000042E01C0880F0A94EAF714FF08C02FE0D8
:1015200030E001C0220F4A95EAF7209501C020E083
:10153000302F369536953370323051F070F440913B
:10154000D203313019F0822B842308C0842B05C0CC
:10155000282B8091D203822701C0822B0E948912FE
:10156000CCC0F02FFF70DF2EBB2039F08F2F0E94F0
:101570009912812F0E940213C0C0812F0E94FB127A
:101580008D2D0E948D12B9C0123F11F128F4103F29
:1015900041F0113FA9F189C0133F01F1143F61F1FE
:1015A00084C0BB2029F024E02C1508F4A2C004C09C
:1015B00085E08C1508F49DC0202F2F7181E090E00C
:1015C00001C0880F2A95EAF79091D20389270FC0AE
:1015D000802F8F71BB2009F470C087C0BB2051F0F1
:1015E00081E0902F9F7101C0880F9A95EAF70E94C1
:1015F00089127FC080E0FBCF80916A0182FF06C024
:10160000802F8F71BB2009F470C057C080910303F5
:101610008230A0F180914A02BB20E1F00E94FD1FC0
:1016200080914D028770843039F40E940A20802F07
:101630008F710E948D125CC080910303C81608F060
:1016400057C0902F9F71D92E892F0E94991263E065
:101650008D2D0DC00E94042080910303C81650F008
:101660000E940A200E94B62064E0802F8F710E94A1
:101670004B203EC081E00E9411203AC0BB2059F0AF
:10168000E02FEF71DE2E8E2F0E94991263E08D2DD8
:101690000E944B202EC081E00E941120F1E0FC1539
:1016A00040F582E00E94112024C0BB2049F0CC20EC
:1016B00011F0812F46CE802F8F710E94991219C090
:1016C000CC2089F0193329F4809107039091080305
:1016D00004C080910503909106030E94AC17812FEE
:1016E0000E94091306C0802F8F710E948D1201C0C5
:1016F000A12C88EF890D843010F40E94D924812F09
:10170000902F0E94A812811105C0109268011092BA
:1017100067011EC0BB2019F0C110F7CF19C0C1105E
:10172000F4CF20E0F701408151816281738184818F
:101730000E94DB268091040383FFE7CF809167013D
:1017400090916801029709F7812F0E949C13DDCFC9
:10175000AA20A9F080914D0280FD11C0F7011282EC
:101760008595859585950E949912C7010E94BD04B3
:1017700080914D028595859585950E948D1260E03A
:10178000C7010E9404270F900F900F900F90DF91D8
:10179000CF911F910F91FF90EF90DF90CF90BF906E
:1017A000AF909F908F900895CF93DF93CDB7DEB722
:1017B00064970FB6F894DEBF0FBECDBF0E943524EC
:1017C000909388018093870190E080E80FB6F894A9
:1017D00080936100909361000FBE86E49CE190933A
:1017E0006501809364010E94081A0E947F1880910D
:1017F0006900886080936900E99A8BE48093E00334
:10180000809313048093EC038AE58093DF03809335
:1018100012048093EB03539A80E0815041F0A89525
:10182000AFE9BFE01197F1F700C00000F6CF539881
:10183000789482E084BD93E095BD9AEF97BD809344
:101840006E000E948E1A811102C00E947F1A04E26B
:1018500011E0B8E2EB2EB1E0FB2EF80181918F018F
:101860008F3F11F00E948B1CE016F106B1F708E2E1
:1018700011E0A2E3EA2EA1E0FA2ED8018D918D01AC
:101880008F3F11F00E948B1CE016F106B1F788E043
:10189000EFE7F1E0DF01282F1D922A95E9F7EBE64B
:1018A000F1E0DF011D928A95E9F780E090E00E9467
:1018B000E1298A3E9E4F21F40E948E1A811102C0B6
:1018C0000E94741F82E090E00E94D92980937401E5
:1018D0000E94631F90936A01809369010E94A21C79
:1018E000EFE3FCE93197F1F700C000000E94A21C71
:1018F00080917F0180FF08C06FEF7FEF80E090E074
:101900000E94052A0E94EB2383E090E00E94D929DF
:101910000E94A41280E091E090930F0380930E0345
:10192000FFEF20E732E0F15020403040E1F700C007
:101930000000FF24FA9454E0E52E6AE0662E8E0142
:101940000F5F1F4F70E2772E22242394312CF2E395
:101950004F2E512C8091D303882399F01092D303FA
:101960000E9435249093880180938701809112030F
:10197000882379F1109212030E94DB120E94D9246D
:1019800011C080911203811111C080918701909143
:1019900088010E942624069728F081E08093120394
:1019A0000E946A2480911203882399F081E0809339
:1019B00012030E946A240E94A21CEFE7F1E08191C9
:1019C0009191892B09F0C8C441E0E738F407B9F7D1
:1019D000C1CF0E94E2218091CA03882309F46AC121
:1019E0008091DF0384FF66C10E94A21C882359F006
:1019F0008FB7F8944091140350911503609116032A
:101A0000709117038FBFAFE7B1E0E5E7F1E0C12CBC
:101A1000D12C6C2D2D913D9181919191822793270D
:101A2000009779F170E0AA24A394B12CA501482372
:101A30005923452B09F17B876C872A213B2181E0C3
:101A4000232B09F480E08D870E9435248160782F54
:101A50009F878E874B855C856D858F850E941227B9
:101A6000F601EE0FFF1FEB58FE4F80819181A826F3
:101A7000B926B182A0821BC07F5FAA0CBB1C7A3042
:101A8000A9F65FEFC51AD50A84E0C816D10409F695
:101A9000F88AF98A1A8A0E9435248160782F9C8BF3
:101AA0008B8B488959896A898C890E94122786E024
:101AB000EFE9F1E0D80101900D928A95E1F7A0904D
:101AC000A101B090A201C090A301D090A4011092F6
:101AD000A1011092A2011092A3011092A401A110E1
:101AE00003C0BB2009F45DC080919D0190919E01CF
:101AF0000E942624AC0190919901992339F02091FC
:101B0000140130E02417350758F04BC0209115011F
:101B1000AAE02A9F900111242417350718F041C02C
:101B20009F3F19F09F5F90939901AA2061F00E9456
:101B30008F1B1A1414F491E001C09FEF899F802D30
:101B400011248093A101BB2061F00E948F1B1B1404
:101B500014F491E001C09FEF899F802D11248093A0
:101B6000A2013091A1013323E1F02091A2012223AF
:101B7000C1F045EB3403C0011124992319F090936F
:101B8000A10103C081E08093A10155EB2503C001B1
:101B90001124992319F09093A20103C081E080934E
:101BA000A201C11003C0DD2009F45DC080919B013A
:101BB00090919C010E942624AC0190919801992358
:101BC00039F02091100130E02417350758F04BC050
:101BD000209111018AE0289F9001112424173507D4
:101BE00018F041C09F3F19F09F5F90939801CC205F
:101BF00061F00E94561B1C1414F491E001C09FEF89
:101C0000899F802D11248093A301DD2061F00E9423
:101C1000561B1D1414F491E001C09FEF899F802D85
:101C200011248093A4013091A3013323E1F020918A
:101C3000A4012223C1F045EB3403C00111249923F0
:101C400019F09093A30103C081E08093A30155EBA9
:101C50002503C0011124992319F09093A40103C016
:101C600081E08093A4018091A10181110BC080913A
:101C7000A201811107C08091A301811103C080914D
:101C8000A40181110E94A71AAB82BC82CD82DE82A0
:101C900086E0F801AFE9B1E001900D928A95E1F795
:101CA0000E94D92490917301891721F00E94D924B0
:101CB000809373010E9490230E94E2218091CA03C5
:101CC000882309F447CE8091120484FF43CE80918B
:101CD000C003803209F03ECEC090CD01D090CE013D
:101CE0008091A003C114D10469F08E3F09F00AC3AA
:101CF0008091A103833008F48DC18550833008F0B2
:101D000001C388C1893009F4FBC228F5843009F485
:101D10009AC060F4823009F440C008F080C081307D
:101D200009F0EEC21092A10389E0FEC1863009F4E9
:101D300095C008F0E5C22091A4033091A503322795
:101D4000232732274091A3036091A2038091A1032E
:101D50000E941419D7C2803109F4EEC090F48D307E
:101D600009F47FC038F48C3009F0CAC280E1809356
:101D7000A103C8C28E3009F479C08F3009F4A7C01E
:101D8000BFC2823109F4DBC008F476C2833109F4A2
:101D900006C18E3F09F43EC1B3C28091A1038230D7
:101DA00009F4F4C2833099F0813009F0A9C22FB749
:101DB000F8948091140390911503A0911603B091AB
:101DC00017032FBFB093A203A093A30344C0809135
:101DD0000C0190910D01892B09F494C280917F012F
:101DE000909180019093A2038093A303809181013D
:101DF000909182019093A4038093A5038091830125
:101E0000909184019093A6038093A703809185010C
:101E1000909186019093A8038093A90373C2809147
:101E2000A103823009F06CC26091A2037091A303F8
:101E30008091A4039091A5030E94512A86E290E02C
:101E40000E94E7295FC24091A3036091A2038091A1
:101E5000A1030E94C7199093A403A2C20E944A1929
:101E600051C282E08093A1038FE45EC1C090A103C0
:101E7000D090A203DC24CD24DC248090A303912CF9
:101E80008DE18816910408F03DC2E0EAAE2EE3E051
:101E9000BE2EC6018F549E4F9501205A33402815FF
:101EA000390508F02FC2AFE4CA16A2E0DA0628F41A
:101EB0000E94D929F501848303C0D50114961C9290
:101EC000BFEFCB1ADB0AEFEFAE1ABE0AE2CF80916A
:101ED0000C0190910D01892B09F414C2C090A1034B
:101EE000D090A203DC24CD24DC24A090A303B12C49
:101EF000FDE1AF16B10408F005C270EA872E73E069
:101F0000972EC6018F549E4F9401205A33402A15B4
:101F10003B0508F0F7C12FE4C21622E0D20628F4F0
:101F2000D40114966C910E94E729BFEFCB1ADB0A0B
:101F3000EFEF8E1A9E0AE5CF0E940419E3C1C0900C
:101F4000A103D090A203DC24CD24DC248090A30341
:101F5000912CFDE18F16910408F0D4C160EAA62E01
:101F600063E0B62EC60187969501205A33402815A6
:101F7000390508F0C7C120E4C21621E0D20630F4CA
:101F80000E94D929D50114968C9302C0F5011482C0
:101F9000FFEFCF1ADF0A2FEFA21AB20AE3CFC090E9
:101FA000A103D090A203DC24CD24DC24A090A303C1
:101FB000B12C3DE1A316B10408F0A4C140E4C4165D
:101FC00041E0D40608F09EC180E491E08C199D099F
:101FD0008A159B0508F496C150EA852E53E0952E8C
:101FE000C60187969401205A33402A153B0508F014
:101FF00089C150E4C51651E0D50628F4D4011496E1
:102000006C910E94E729BFEFCB1ADB0AEFEF8E1A23
:102010009E0AE6CFE091A1038E2F90E08E309105CD
:1020200008F070C1FC01E05CFF4F0C944B2A88E083
:10203000ECE1F1E0D80101900D928A95E1F7A0EA78
:10204000B3E0E72D1D92EA95E9F7E092A00388E05E
:10205000F801A4EAB3E030C18CE58093A00381E0ED
:102060008093A1031092A2031092A3034BC180910D
:10207000A30390E0982F88272091A203820F911D3F
:10208000092E000CAA0BBB0B45E0880F991FAA1F55
:10209000BB1F4A95D1F7AC01BD01405E5F4F6F4F4A
:1020A0007F4F481759076A077B0708F42BC18C3507
:1020B000F1E09F07A105B10508F024C14D3521E0ED
:1020C00052076105710520F04CE551E060E070E0D9
:1020D000481B590BBC0168547F4F80EA93E00E9473
:1020E000C02910C140E250E06FEF70E080EA93E059
:1020F0000E946E2A80910C018093A003C092A103DC
:1021000001C13092CE012092CD0150927E014092C9
:102110007D010E943524F6C080910C018093A003BC
:10212000C092A10380917D018093A203EBC0C09077
:10213000A203D090A30340E250E06FEF70E080EA8A
:1021400093E00E946E2A24E533E080E090E0AC0149
:102150004E5F5F4F4132510508F0D4C0F9016591DF
:102160007491C616D70630F4FC01E056FC4F71831B
:102170006083CA01285F3F4F43E02C3E340739F7A4
:10218000C1C02091A2033091A30384E593E0FC0138
:10219000459154912417350739F00896ACEEB3E019
:1021A000A817B907A1F751C0009709F44EC09C01C8
:1021B0002E5F3F4FF901459154914032510508F08F
:1021C00044C0F90145915491FC0134966591749194
:1021D00081EA93E00E94652A3AC08091A20390911F
:1021E000A30324E5C22E23E0D22EF60125913491DB
:1021F0002817390749F0B8E0CB0ED11CECEECE160B
:10220000E3E0DE0691F721C0C114D104F1F0C6016C
:102210000296FC01259134912D313105B0F4FC0179
:1022200045915491F60134968591949164EA73E056
:102230000E94652A0E94A618F6013696859194910F
:10224000009729F0FC01099502C08FEF01C080E0E2
:102250008093A00357C00E94C31854C08091A2036A
:10226000833069F0843069F181114CC0A0EAB3E099
:10227000E72D1D92EA95E9F7E092A10343C0609132
:10228000A303D801E62D1D92EA95E9F7643068F4BE
:10229000FAE06F9FB001112467577E4F4AE050E08B
:1022A000C8010E94C92980E001C08FEF8093A0037C
:1022B0008AE0F801A1EAB3E001900D928A95E1F776
:1022C00021C06091A3038AE0E4EAF3E0D801019021
:1022D0000D928A95E1F7643068F42AE0629FB001BC
:1022E000112467577E4F4AE050E0C8010E940B2A34
:1022F00080E001C08FEF8093A0030E94081A02C003
:10230000F092A00380EAC82E83E0D82E8091EB03E0
:1023100084FD03C00E94E221F9CF4BEE53E068E058
:10232000C6010E94392338E0C30ED11C40ECC4160C
:1023300043E0D40659F78091EB0384FD03C00E946B
:10234000E221F9CF4BEE53E060E080E090E00E94A4
:1023500039231092C003FECAF8942AB15B9A822FE7
:102360008C608AB99BB18CE098279BB95FE798E3B2
:10237000A1E051509040A040E1F700C000009BB1A7
:1023800089278BB92AB95B987894E4CA86E290E0F1
:102390000E94D9291092A2031092A3031092A403C1
:1023A0008093A503AFCF80E090E00E94C32480E03B
:1023B00090E00E94AD241092CF0110924E020E9434
:1023C0007B20EFE9F1E086E0DF011D928A95E9F7D5
:1023D000109299011092980110929A010C94A71AE8
:1023E000CF92DF92FF920F931F93CF93DF936C01F5
:1023F0000091D20380915202082BC7E0D0E010E098
:10240000C8010C2E02C0959587950A94E2F780FDCD
:1024100004C02197A8F7F12C09C0FC2EB6018C2F1F
:102420000E94F5190E94C91D019799F38F2DDF9124
:10243000CF911F910F91FF90DF90CF900895CF9390
:10244000DF93EC010E94F011BE010E94F5190E9479
:10245000C91DDF91CF9108959E3F61F12AE0929FBF
:10246000800D1124682F669566956695982F977054
:1024700083E0689FB001112440E050E080E0FB0160
:10248000E40FF51FE757FE4F208130E0092E02C010
:10249000369527950A94E2F721703327042E01C060
:1024A000220F0A94EAF7822B4F5F5F4F43305105AA
:1024B00031F7089580E008959E3F51F12AE0929F00
:1024C000800D1124E82FE695E695E695877051E09A
:1024D00001C0550F8A95EAF783E0E89FF0011124C7
:1024E000E757FE4F20E030E070E04081CB01022E44
:1024F00002C0969587950A94E2F7817081958427AA
:102500008523842781932F5F3F4F2330310569F75F
:1025100008958093D2030C94D31121E030E001C0E0
:10252000220F8A95EAF720958091D20382230C949A
:10253000891221E030E001C0220F8A95EAF78091EC
:10254000D203822B0C948912809352020C94D311E3
:10255000E92FE295EF704E2F50E0FA013297EE30FE
:10256000F105B0F4E25BFF4F0C944B2A803F91F0F1
:1025700018F4883E68F40EC0843F51F40BC0883EC6
:1025800048F0813F29F406C093FB882780F908951D
:1025900080E0089581E00895FC018681978100978D
:1025A00019F00E94C91D04C0808191810E941F12F0
:1025B0000E94A81208951092D00186E0EAEFF1E09F
:1025C000DF011D928A95E9F70C94D311882341F01D
:1025D00080959091CF0189238093CF010C947B202B
:1025E0000895882339F09091CF01892B8093CF01F2
:1025F0000C947B200895882321F00E94FD1F0C94E9
:102600007B200895882321F00E9404200C947B20D5
:1026100008958823A9F19CEF980F913A60F4E8EFB0
:10262000F1E09281891301C01282319691E0EE3F70
:10263000F907B9F70DC090E2980F983058F48770F9
:1026400091E001C0990F8A95EAF7892F0E94FD1F3A
:102650000C947B209BE5980F933020F480E090E071
:102660000C94C32498E5980F973120F480E090E013
:102670000C94AD24803F20F00E94D11A0C94A71A2C
:102680000895CF93882309F455C0C82F8CEF8C0F81
:10269000813AF8F4EAEFF1E080E092E02191C2178C
:1026A00021F08E179F07D1F70EC0E8EFF1E08EEF13
:1026B00091E02281C21301C0128231968E179F07CA
:1026C000C1F70E947B206C2F88EF91E00E94932439
:1026D0000CC080E28C0F883058F4C77081E001C0D4
:1026E000880FCA95EAF70E940420CF910C947B20B2
:1026F000EBE5EC0FE33040F4F0E0EE5CFE4F808160
:1027000090E0CF910C94C324E8E5EC0FE73150F44E
:10271000F0E0EE0FFF1FEB5CFE4F80819181CF91C7
:102720000C94AD24C03F30F08C2F0E94DE1BCF9163
:102730000C94A71ACF9108951F93CF93DF93182F6E
:10274000893329F4C0910703D091080304C0C091D4
:102750000503D0910603812F0E944113209741F079
:102760008FE99FE00197F1F700C000002197F6CFB5
:10277000812FDF91CF911F910C9409132F923F92DB
:102780004F925F926F927F928F929F92AF92BF9281
:10279000CF92DF92EF92FF920F931F93CF93DF932D
:1027A000CDB7DEB765970FB6F894DEBF0FBECDBFCD
:1027B0008C0185E0F801DE01519601900D928A9519
:1027C000E1F7D8014C9011965C9011971296EC901D
:1027D00012971396CD90DC90149760E080E092E021
:1027E0000E94042780E0A82E82E0B82E8090030289
:1027F00090900402A40160910102809100020E9465
:102800005C25F82E8111E5C130900202F601E8192D
:10281000F9094F0160E0332009F469C1C5010E9444
:1028200004276090FF027090000320900502861438
:10283000970408F014C14091030250910402B09033
:102840000002A0900102822D807F6A2D09F097C0BE
:102850008B2D0E945C25811124C0D80111968C918A
:1028600011978A111EC08C918B111BC020910602FA
:102870003091070216968D919C911797281739076A
:1028800081F4E1100EC0822D8F708061809305026B
:1028900080E092E00E94BD0480910502F8018583EA
:1028A000B4C1F4EF6F16F1E07F0620F480910403C9
:1028B00080FF21C0A601652D842D0E945C25811119
:1028C00003C081E08E2502C080E090E080FF13C04D
:1028D0004E2D652D842D0E94BC20882361F080E060
:1028E00092E00E94BD04E0E0F2E088E0DF011D928A
:1028F0008A95E9F78AC1A601652D842D0E945C2581
:10290000811103C081E08E2502C080E090E0B82FE5
:10291000B170CB2E80FF2AC04E2D652D842D0E94D4
:10292000BC20D82E811122C0498A5A8A89899A8965
:102930000E941F12292F22952F70223018F0243068
:1029400078F405C09F7049F0811107C00DC09F70D9
:1029500021F0F8019581907F39F0805E883020F079
:10296000C8010E94BD04DC2CFD2C4FC1EE2009F4EF
:102970004BC18091050281608093050246C18B2D79
:102980000E945C25811124C0D80111968C91119769
:102990008A111EC08C918B111BC0209106023091B0
:1029A000070216968D919C9117972817390781F485
:1029B000E1100EC015962C92C8010E94BD0488E05B
:1029C000F801A0E0B2E001900D928A95E1F76FC0A6
:1029D000C8010E94CC128823E1F1EE20D1F12091B0
:1029E0000502822F82958F7090E00297A4F080916B
:1029F0000002909101029A8789871B86DD86CC862A
:102A00002E878091060290910702988B8F87CE01C6
:102A100009960E94BD0488E0F801A0E0B2E00190B0
:102A20000D928A95E1F70E94E62016C0F090000210
:102A3000909001024091030250910402692D8F2D64
:102A40000E945C25882399F0C8010E94CC12811154
:102A500030C0C8010E94BD04FF24F394D6C0822D6B
:102A6000807F21F780E092E00E94BD04ACC0D801D5
:102A700011968C9111978911E7CF8C918F11E4CF2A
:102A8000209106023091070216968D919C9117971E
:102A900028173907C9F6E110D7CF15962C92C8012F
:102AA0000E94BD0488E0F50111928A95E9F7F32CA4
:102AB000ACC0EE2071F220910502822F82958F70BA
:102AC00090E002970CF4A7CF809100029091010250
:102AD0009A8389831B82DD82CC822E8380910602B9
:102AE0009091070298878F83CE01019692CF80E064
:102AF00092E00E9404278091FF02909100038816C3
:102B0000990608F060C0FE2CEE2009F4A2CFE090F8
:102B10000002D090010240910302509104026D2DF9
:102B20008E2D0E945C25811140C0D80111968C9198
:102B300011978D113AC08C918E1137C020910602E9
:102B40003091070216968D919C9117972817390797
:102B500061F58091040382FD1FC08091050280FD14
:102B60001BC082958F70482F50E041155105A1F090
:102B70002091050215962C9315974F30510549F079
:102B80008F5F982F9295907F822F8F70892B15964B
:102B90008C93C8010E94BD0488E0F801A0E0B2E077
:102BA00001900D928A95E1F730C0C8010E94CC12C5
:102BB000811131CF80910502816080930502C801A7
:102BC0000E94BD0422C088E0F50111928A95E9F7C0
:102BD0001CC0EE2009F43DCFC8010E94CC12F82E93
:102BE000882309F436CF88E0F801A0E0B2E0019034
:102BF0000D928A95E1F780910002909101020E9466
:102C00001F120E94E62001C0F12C8F2D65960FB691
:102C1000F894DEBF0FBECDBFDF91CF911F910F9112
:102C2000FF90EF90DF90CF90BF90AF909F908F90EC
:102C30007F906F905F904F903F902F900895EF920C
:102C4000FF920F931F93CF93DF93CDB7DEB76097BB
:102C50000FB6F894DEBF0FBECDBF29873A874B87EA
:102C60005C876D877E878F87988BCE0109960E943F
:102C7000BE1381114AC088E0FE013996DE0111962B
:102C800001900D928A95E1F7E984FA840C851D85FF
:102C9000A8016F2D8E2D0E945C25811136C0A09158
:102CA0000802B0E0CD010196877099272091490272
:102CB00030E08217930781F1E982FA821D830C8349
:102CC00093E0AA0FBB1F9A95E1F7A75FBD4F98E06D
:102CD000FE01319601900D929A95E1F780930802DA
:102CE0000E94DC2012C028E0829FC0011124875F6F
:102CF0009D4F0E94BE138823E1F08091490290E02D
:102D0000019687709927809349028091490290919A
:102D100008028913E8CF0DC00E94DB12109208024E
:102D200010924902E0E0F2E088E0DF011D928A950E
:102D3000E9F760960FB6F894DEBF0FBECDBFDF9106
:102D4000CF911F910F91FF90EF900895E7EEF2E081
:102D5000848195812AE030E0B9010E94232A6093A2
:102D600015018681809314018285809313018485E7
:102D70008093120186859785B9010E94232A60936A
:102D80001101808980931001828980930F018489C9
:102D900080930E0108958091E7029091E80290934C
:102DA0001701809316010895BC014091E3028091C0
:102DB000E402942F981729F1292F30E0F901EE0F42
:102DC000FF1FE552FD4F0190F081E02DE617F70758
:102DD00099F487E0869FF001879FF00D1124E1545C
:102DE000FD4F81E0848394130CC02F5F3F4F23700D
:102DF00033272093E30208952F5F3F4F922F937064
:102E0000D9CF0895EF92FF920F931F93CF93DF9343
:102E100080915E028823F1F10091F7018CE0F82E99
:102E200080915E02081790F5EE24E394E00EE092A4
:102E3000F70110E0F09EE001F19ED00D1124C15A7F
:102E4000DD4F4B815C81698188810E945C25811105
:102E50001BC08E819F81892B21F4888599850196DD
:102E600051F4288139814A815B816C817D818E8119
:102E70009F810E941F16F09EF001F19EF00D11241B
:102E8000E15AFD4F148213820E2DCACF10925E02BA
:102E90001092F701DF91CF911F910F91FF90EF906A
:102EA00008951092F6011092F501EFEBF2E08581A2
:102EB000811102C014821682379682E0EB3DF8073A
:102EC000B1F7089580911801877F80931801909140
:102ED000CF019D7F9093CF0184FF06C08F7E8093AA
:102EE000180182E00E9404208091180185FF06C02D
:102EF0008F7D8093180180E20E9404200C947B2037
:102F0000CF93DF93662329F02091CF012260209395
:102F1000CF019C013056EC01211540E2340720F02E
:102F2000305E2115304108F4DD27CE01805E910925
:102F3000089710F0209731F4CE010E9479290E9461
:102F4000021305C0CE010E9479290E94F1128C2F34
:102F5000DF91CF910C944113009741F0EFE9FFE02E
:102F60003197F1F700C000000197F6CF0895AF92B6
:102F7000BF92CF92DF92EF92FF920F931F93CF9366
:102F8000DF935C017B01C42E89018091180182FFCF
:102F90008DC0C091F301D091F401CA15DB0521F079
:102FA000A114B10409F082C0809118018B7F809335
:102FB000180181FD11C08091F1019091F201A701EA
:102FC000481B590B81E020911601309117014217DF
:102FD000530718F480E001C081E08170D82E809101
:102FE0001801D0FA81F980931801FE01FF2784E0CF
:102FF000F695E7958A95E1F79E012F703327EE0F3E
:10300000FF1FEF52FE4F81E090E002C0880F991F32
:103010002A95E2F7DD2029F020813181822B932B44
:1030200006C08095909520813181822393239183DE
:1030300080838091D00181FF08C080911801806158
:103040008093180182E00E94FD1F8091D00185FFCE
:1030500008C08091180180628093180180E20E946C
:10306000FD1FA8016D2DCE010E948017CC2031F0EC
:103070008091020385FF02C086FF36C08091050360
:10308000909106030E94AC178091F3019091F40196
:103090009C013056211540E2340720F0305E2115A6
:1030A000304108F499270E94A62918C095013327BA
:1030B000C5019056811540E2940720F0905E81157D
:1030C000904110F4C90101C0C5010E94A629809158
:1030D000F3019091F401A816B90611F40E94621749
:1030E000F092F201E092F101DF91CF911F910F91E7
:1030F000FF90EF90DF90CF90BF90AF9008950F9327
:103100001F93CF93DF9307EE12E0C7E6D1E0CE0125
:103110000E94D929F80181938F012196C938F1E0E5
:10312000DF07A9F7C0E0D0E0FE01E65AFC4F859129
:103130009491009711F0FC0109952896C839D105A2
:1031400099F7DF91CF911F910F9108950F931F93DE
:10315000CF93DF9307EE12E0C7E6D1E0CE010E94E5
:10316000D929F80161918F01681719F0CE010E94E9
:10317000E7292196C938F1E0DF0781F7DF91CF9188
:103180001F910F910895E7EEF2E0128E138E8FEAF1
:1031900090E09183808385E0848F88E893E1938336
:1031A00082834CE251E05583448322E330E037834D
:1031B000268385E090E0918780878AE090E093877E
:1031C000828764E170E0758764875787468744E6A5
:1031D00050E0518B408B48E050E0538B428B48E2EB
:1031E00050E0558B448B378B268B28EC30E0318FA9
:1031F000208F158E978F868F80E590E091A380A316
:103200000E94A6180C947F18CF93DF93C1EBD1E0F6
:1032100060E0CE010E94E7292196C11584E0D8071D
:10322000B9F7DF91CF9108950F931F93CF93DF9359
:10323000843058F5643048F54A3038F521159CE55E
:10324000390731F4E0910C01F0910D01EF2BE9F019
:103250008901C42FD0E0CC0FDD1F94E1699FC00D20
:10326000D11D112490E5899FC00DD11D1124612F1E
:10327000CE0187960E94E729602FCE018896DF91C4
:10328000CF911F910F910C94E729DF91CF911F915E
:103290000F9108956F927F928F929F92AF92BF92FB
:1032A000CF92DF92EF92FF920F931F93CF93DF9312
:1032B000CDB7DEB72A970FB6F894DEBF0FBECDBFED
:1032C000A0900C01B0900D0181E090E090930D0171
:1032D00080930C01612CC12CD12C712CE12CF12C90
:1032E00000E010E046018E0C9F1CF801EE0FFF1F5E
:1032F000E80DF91DEC5EFD4F25913491402F672DAF
:10330000862D0E9414190F5F1F4F0A30110569F7AF
:1033100084E1E80EF11C739494E07912E1CFE0E5CA
:10332000CE0ED11C6394F4E06F12D7CF0E94C31865
:10333000CE0101967C018AE0F70111928A95E9F7A6
:1033400009E811E04AE050E0B801C7010E940B2AE9
:10335000065F1F4F013BF1E01F07A1F7B0920D017F
:10336000A0920C012A960FB6F894DEBF0FBECDBF17
:10337000DF91CF911F910F91FF90EF90DF90CF9051
:10338000BF90AF909F908F907F906F9008950F9314
:103390001F93CF93DF93843008F56430F8F44A30FC
:1033A000E8F4C42FD0E0CC0FDD1F24E1629FC00DF4
:1033B000D11D112430E5839FC00DD11D1124CE01F4
:1033C00087960E94D92990E0182F0027CE01889671
:1033D0000E94D9299801282BC90102C080E090E001
:1033E000DF91CF911F910F910895462F2091CD012C
:1033F0003091CE01232B49F4843038F4743028F412
:103400006A3018F4672F0C94C71980E090E0089593
:10341000CF92DF92EF92FF920F931F93CF93DF93A0
:10342000CDB7DEB72A970FB6F894DEBF0FBECDBF7B
:1034300088E2E5EAF1E0DF011D928A95E9F78CE187
:10344000EFEBF2E0DF011D928A95E9F785EAC82EDD
:1034500081E0D82E7F0109E811E0F701D182C08216
:103460004AE050E0B801CE0101960E94C92988E0E7
:10347000FE013196D60101900D928A95E1F789857A
:103480009A85D70113969C938E931297BAE0CB0E30
:10349000D11CE7E0EE0EF11C065F1F4F013BF1E08F
:1034A0001F07D9F62A960FB6F894DEBF0FBECDBF20
:1034B000DF91CF911F910F91FF90EF90DF90CF9010
:1034C0000895CF93C82F811102C06FEF01C060ED46
:1034D00083E290E00E94E729C11102C06FEF01C0B2
:1034E0006BE584E290E00E94E729C11102C06FEF12
:1034F00001C065EA85E290E0CF910C94E72980E075
:103500000E94611A60E086E290E00E94E7290E9432
:103510004A190E94041981E00C94611A83E290E038
:103520000E94D929803D81F484E290E00E94D9294B
:103530008B3551F485E290E00E94D92991E0853ADB
:1035400009F090E0892F01C080E0817008950E9409
:1035500035242091A101211104C02091A201222330
:1035600021F090939E0180939D012091A301211150
:1035700004C02091A401222321F090939C01809308
:103580009B01E0910E03F0910F03309749F082E028
:1035900080939F010480F581E02D8FE991E00994EB
:1035A0000895803F39F48091A20187FF6AC010928C
:1035B000A20167C0813F29F48091A2011816BCF3D3
:1035C00060C09091A101823F29F497FF5AC01092E8
:1035D000A10157C0833F19F41916CCF352C0909142
:1035E000A301893F31F419160CF04BC01092A301CE
:1035F00048C08A3F19F497FF44C0F8CF8B3F39F495
:103600008091A40187FF3DC01092A4013AC08C3F75
:1036100029F48091A4011816BCF333C0843F21F42F
:103620008091A0018E7F17C0853F21F48091A00179
:103630008D7F11C0863F21F48091A0018B7F0BC04C
:10364000873F21F48091A001877F05C0883F31F436
:103650008091A0018F7E8093A00113C08D3F21F443
:1036600080919A018E7F0BC08E3F21F480919A0148
:103670008D7F05C08F3F29F480919A018B7F8093C5
:103680009A018091A101811106C08091A20181114E
:1036900002C0109299018091A301811106C080910E
:1036A000A401811102C010929801089580919A019D
:1036B00080FF08C060910F0170E075956795759562
:1036C000679521C081FF06C060910F0170E075957C
:1036D000679519C082FF04C060910F0170E010C0AF
:1036E00090919801992399F060910E019617A0F797
:1036F00080910F01899FC001112470E00E94372A38
:103700006038710540F46115710519F406C061E077
:1037100070E0862F08958FE7089581E008958091E5
:103720009A012091EF023091F00280FF0CC080914D
:103730001301829FB001839F700D112476956795C8
:10374000769567952FC081FF0AC080911301829FF3
:10375000B001839F700D11247695679523C082FF79
:1037600008C080911301829FB001839F700D1124C6
:1037700019C040919901411102C0B90113C0609173
:103780001201461770F780911301849FA001112444
:10379000429FC001439F900D529F900D112470E0F5
:1037A0000E94232A6038710528F46115710521F003
:1037B000862F08958FE7089581E00895803F21F4D2
:1037C0000E948F1B819504C0813F29F40E948F1BAA
:1037D0008093A2010895823F21F40E948F1B81955E
:1037E00004C0833F29F40E948F1B8093A101089598
:1037F000893F19F40E94561B05C08A3F31F40E948C
:10380000561B81958093A30108958B3F21F40E945C
:10381000561B819504C08C3F29F40E94561B80934F
:10382000A4010895843F21F48091A001816017C014
:10383000853F21F48091A001826011C0863F21F470
:103840008091A00184600BC0873F21F48091A0018A
:10385000886005C0883F31F48091A0018061809329
:10386000A00108958D3F21F480919A0181600BC0E1
:103870008E3F21F480919A01826005C08F3F29F428
:1038800080919A01846080939A01089580E0089560
:103890009091690192FF0DC0282F2871283019F4EA
:1038A000877F846006C0282F2471243011F48B7F19
:1038B000886093FF0DC0282F2871283119F4877E66
:1038C000846106C0282F2471243111F48B7E886115
:1038D00020916A0120FF0DC0382F3871383019F45B
:1038E000877F816006C0382F3171313011F48E7FAF
:1038F000886021FF0DC0282F2871283119F4877E98
:10390000816106C0282F2171213111F48E7E8861DA
:1039100094FD877E0895F894E82FE295EF70F0E02B
:1039200031A1282F2F7081E090E001C0880F2A95E7
:10393000EAF7982F9095932391A392A1892B82A3C4
:10394000789408958F929F92AF92BF92CF92DF9218
:10395000EF92FF920F931F93CF93DF93CDB7DEB714
:1039600028970FB6F894DEBF0FBECDBFAE014F5FF4
:103970005F4F7A0188E0FA0111928A95E9F704E233
:1039800011E06A01AA24A394B12CF80180818F3F31
:1039900009F447C0F894E82FE295EF70F0E021A118
:1039A0008F70A50102C0440F551F8A95E2F7CA0126
:1039B000922F982B91A392A18095892382A378942A
:1039C00000C0E8E2F1E021E030E0812C912C41914F
:1039D0004F3F89F0A42FA295AF70B0E090968C91E4
:1039E00090E04F7002C0959587954A95E2F780FD6B
:1039F00002C0C90102C080E090E0882A992A220F03
:103A0000331F51E0E233F50711F7F80180818F3F52
:103A100011F00E948B1CF0EAFA95F1F7F601918201
:103A200080820F5F1F4FF2E0CF0ED11C41E00832C1
:103A3000140709F0AACF48E050E0B7018BE691E007
:103A40000E94582A11E0009709F410E0892B89F0B0
:103A500088E0F701ABE6B1E001900D928A95E1F7BD
:103A600081E0809355020E94352490935402809304
:103A7000530280915502882351F180915302909115
:103A800054020E942624059710F180916B019091B9
:103A90006C019093800180937F0180916D019091E2
:103AA0006E01909382018093810180916F019091CA
:103AB00070019093840180938301809171019091B2
:103AC0007201909386018093850110925502809136
:103AD0001901882341F18091E5029091E602009757
:103AE00011F10E9426242091F5013091F60128174A
:103AF0003907C8F49091E3028091E402981759F0D5
:103B00000E9479251092F6011092F5011092E602BA
:103B10001092E50208C00E9402171092E60210926D
:103B2000E5020E9451178091020380FF1EC0809120
:103B3000180182FF1AC00E9435242091F1013091B2
:103B4000F201AC01421B530B209116013091170179
:103B50004217530750F026E532E041E0BC01809166
:103B6000F3019091F4010E94B717812F28960FB6A8
:103B7000F894DEBF0FBECDBFDF91CF911F910F91A3
:103B8000FF90EF90DF90CF90BF90AF909F908F907D
:103B90000895CF93DF938238910569F1B0F48133B2
:103BA000910509F46FC048F48932910509F465C0A4
:103BB0008A32910509F46BC08AC08533910509F4F6
:103BC00057C089339105B9F082C0833E910571F1E8
:103BD00038F4803E9105B1F0823E910511F177C035
:103BE000863E9105B9F1873E9105C9F1843E910564
:103BF00009F06DC024C02091690120FD53C021FD52
:103C000051C065C08091690180FD46C080916A0104
:103C100080FF48C08091690184FD50C183EE90E02F
:103C20004FC18091690182FF3AC0F4CF8091690150
:103C300082FD35C080916A0180FD34C0EBCF809158
:103C40006A0181FF35C08091690184FD37C187EE2B
:103C500090E036C18091690183FF27C0F4CF809145
:103C6000690183FD22C080916A0181FD21C0EBCFF3
:103C70008091690185FD1FC021C08091690185FD8A
:103C80001DC019C08091690186FD1BC01DC08091B7
:103C9000690186FD19C015C089E390E011C182EE6B
:103CA00090E00EC180EE90E00BC186EE90E008C17E
:103CB00084EE90E005C189E290E002C185E390E0E6
:103CC000FFC08AE290E0FCC081E390E0F9C081157A
:103CD00031E5930708F069C0811540E59407F0F0DD
:103CE0009C0174E0369527957A95E1F7922F9370B1
:103CF000482F437021E030E002C0220F331F4A9565
:103D0000E2F73C68392B982F9F709695969540E284
:103D1000949FC0011124822B932BD2C0883E910521
:103D200068F5803E910508F0CBC0883A9105B8F45B
:103D3000853A910548F0855AE82FF0E0EE5CFE4F99
:103D4000808190E09064BCC08130910509F4B3C0DB
:103D500008F4B4C08430910508F4B0C0B1C08F3B02
:103D6000910508F0ABC0885AE82FF0E0EE0FFF1F76
:103D7000EB5CFE4F808191819464A2C0811520E2AA
:103D8000920758F4811531E0930708F099C0803FFD
:103D9000910508F493C0906593C0811540E49407A1
:103DA00008F48CC09F70906A8BC0811525E592073E
:103DB00008F042C0811534E5930728F0982F882732
:103DC000846F906A7DC0811543E59407B0F09C0133
:103DD0002370332741E050E002C0440F551F2A955D
:103DE000E2F7282F2695269580E2289F900111243E
:103DF000CA01822B932B9A6863C0811522E5920732
:103E000028F4982F8827816F906A5AC09C012370EC
:103E1000332741E050E002C0440F551F2A95E2F7D6
:103E2000282F2695269580E2289F90011124CA010B
:103E3000822B932B9C6844C0EC01811539E59307D4
:103E4000A8F48115984528F09C2F8827806F906AE8
:103E500037C0C11586E5D80788F58C2F0E94481C0D
:103E60008F7190E0982F882790622AC081152AE5EB
:103E7000920790F48C2F8F700E94481C94E0D69586
:103E8000C7959A95E1F7CF70D0E0DC2FCC27D069A9
:103E90009E01282BC90114C090568115904270F4E0
:103EA0008D2F8F710E94481C282F2F71CE019927CA
:103EB0009062922B05C081E090E002C080E090E02B
:103EC000DF91CF910895CF9384E090E00E94D929AB
:103ED000C82F82E290E00E94D9292C2F30E0A9015E
:103EE000582BCA01CF9108956AEE7EEF80E090E0F2
:103EF0000E94052A60E082E090E00E94E72960E0ED
:103F000083E090E00E94E7291092520260E084E092
:103F100090E00E94E72960E082E290E00E94E729B9
:103F200060E085E090E00E94E72960E086E090E0B4
:103F30000E94E7296FEF87E090E00E94E72940E0C8
:103F400050E0BA0188E090E00E94F92960E08DE03D
:103F500090E00E94E72940E050E0BA0188E190E05B
:103F60000E94F92960E087E190E00E94E72940E0A3
:103F700050E0BA018CE190E00E94F92960E070E025
:103F800080E290E00E94052A40E050E0BA0188E11A
:103F900090E00E94F92980E00E94611A0E947F1A35
:103FA00040E050E0BA018FE090E00E94F92940E043
:103FB00050E0BA0183E190E00C94F929809151021C
:103FC000882331F0109251021092500210924F0249
:103FD0000895CF9390916A0192FD0DC09091510286
:103FE000981749F0C82F0E9435249093500280936F
:103FF0004F02C0935102CF91089580959091D001C6
:1040000089238093D00108959091D001892B8093CA
:10401000D001089510924D0210924C0210924B0262
:10402000089520914D028095822380934D02982F10
:10403000977099F430E0482F082E000C550B241788
:10404000350759F090916A0192FD07C085958595D5
:1040500085950E948D120C940A200895CF93C091EB
:104060006A01C2FB992790F9981799F080FBC2F971
:10407000C0936A016091690184E090E00E94E729A1
:104080006C2F82E290E00E94E72982E0CF910C94AD
:104090001120CF91089590916A0192FD10C098E08F
:1040A000899F90011124262B20934D020E94991282
:1040B0000E94352490934C0280934B0208950C94F7
:1040C00099128091E9029091EA02892B89F00E946D
:1040D000352420914F0230915002AC01421B530B0A
:1040E00081E02091E9023091EA024217530708F477
:1040F00080E0817008959091D0018091CF01892B4B
:1041000090914E02892B8093F8018091510288236F
:1041100001F18091E9029091EA02892B29F00E9435
:10412000612081110E94DE1F9091F801809151025F
:10413000892B8093F801EAEFF1E097E080E091505D
:1041400029F021912223D9F38F5FF9CF81110E94A9
:10415000DE1FE0910E03F0910F03309731F00280E3
:10416000F381E02D88EF91E00994089580914A024F
:10417000811110924A0208952091490290910802FB
:104180002917B1F030E0F90153E0EE0FFF1F5A9507
:10419000E1F7E75FFD4F5181561306C05081581378
:1041A00003C05281541306C02F5F3F4F2770E8CFE2
:1041B00080E0089581E0089580914902909108027D
:1041C000891719F08F5F8770FBCF0895CF92DF9228
:1041D000EF92FF920F931F93CF93DF93809105028D
:1041E00082958F7009F05CC080910202882309F4E7
:1041F00057C0C091490280910802C81709F450C005
:10420000F0900002E0900102C0900302D0900402FE
:10421000A6016E2D8F2D0E945C25D0E081113DC03E
:104220008E0183E0000F111F8A95E1F7F801E75F27
:10423000FD4F81818E1131C080818F112EC082810E
:1042400081112BC0E380F480EC18FD0860E080E071
:1042500092E00E9404278091FF0290910003E816EB
:10426000F906D8F4809105028F7080618093050271
:10427000F801E25FFD4F80818F708061808380E074
:1042800092E00E94BD04DF91CF911F910F91FF90AA
:10429000EF90DF90CF900C94DC202196C770ABCFCD
:1042A000DF91CF911F910F91FF90EF90DF90CF9012
:1042B0000895FC0193819330B9F068F4913089F04E
:1042C000923009F06EC087E195E09093D10380931E
:1042D000D0038BE50895913281F1923209F441C007
:1042E00060C082E795E01BC082818130B1F068F048
:1042F0008230D9F0833009F054C08FEC94E0909371
:10430000D1038093D0038CE1089583E195E09093ED
:10431000D1038093D00384E008958FEF94E09093CD
:10432000D1038093D00382E108958DEE94E09093C1
:10433000D1038093D00380E108958281813049F0D8
:1043400028F0823071F582E695E005C089E295E0BB
:1043500002C082E495E09093D1038093D00389E07A
:104360000895848195818130910599F050F00297EC
:10437000C1F48CEE93E09093D1038093D00381E855
:1043800008958FE894E09093D1038093D00380E464
:1043900008958DE694E09093D1038093D00382E258
:1043A000089580E0089508958091CB030895809149
:1043B000D203982F9670963011F4886001C0877FE1
:1043C0000C948912CF93DF938091FA03835087FD79
:1043D000E4C09091F903CCE0D0E0C91BD109C450EE
:1043E000DC4F9091F8039031D0F4883019F010929E
:1043F000C003D1C08091C003E82FF0E0E931F1059E
:10440000B4F7E056FC4F9E01285F3F4F999191937E
:104410002C173D07D9F7885F8093C003BCC09D323D
:1044200009F0A0C0883009F0B6C083EC8093D403B3
:104430008AE580931B011092CF0388818076D9F1A1
:10444000803209F084C08981813069F48C819D813A
:10445000892B09F07CC082EC93E09093D103809388
:10446000D00388E075C0823041F481EC93E09093F2
:10447000D1038093D00381E06BC08A3021F48B811B
:104480008093C10364C0893009F061C08A819B8137
:104490008115924009F0DCC08C819D81892B09F047
:1044A000D7C081E08093CE038E819F819093CD030E
:1044B0008093CC03CDC09A811092DD038981811154
:1044C00006C01092DE032DED33E082E03BC0853064
:1044D00019F49093FB0333C08630B9F48B8181309B
:1044E00041F0823031F0833021F0813211F082329C
:1044F00021F4CE010E94592101C080E090E4909304
:10450000CF038F3F09F4A4C023C0883089F08930DD
:1045100019F49093CA0313C08A3069F08B3079F490
:104520008BE48093E003809313048093EC0307C033
:104530002AEC33E002C02DED33E081E003C02DED25
:1045400033E080E03093D1032093D00301C080E0BA
:104550009F81911104C09E81981708F4892F809340
:104560001A0119C08091CF0387FF15C08091CC0339
:104570009091CD03892B09F475C08091CE038130D1
:1045800009F070C088818093CB031092CD03109204
:10459000CC0310921A011092FA0380911B0184FF40
:1045A0004CC080911A018F3F09F447C0C82F893051
:1045B00008F0C8E08C1B80931A019091D40388E81E
:1045C00089278093D403CC2359F18091D003909113
:1045D000D1032091CF0326FF12C0A4EDB3E02C2F0E
:1045E000AC01445D5340FA01EA0FFB1FE4911196C0
:1045F000EC931197215011962111F5CF08C0E5EDEC
:10460000F3E0DC012C2F3D9131932150E1F701962D
:104610002FEF2C0F820F911D9093D1038093D00325
:104620006C2F85ED93E00E947803CC5FCC3019F0BD
:104630008FEF80931A01C0931B0184E199B19C70A4
:10464000A9F48150D9F71092FB031092F7030EC022
:10465000888187FF05C08E8190E89093CF037FCF3C
:104660008FEFFACF8EE180931B0195CFDF91CF9131
:1046700008951F93CF93DF93162FEA01288124FF1B
:1046800005C0398128E82327298302C02AE5288329
:10469000212FFC01CE010296DC0131913D93215086
:1046A0001216DCF3612F0E9478031C5F1883DF91E0
:1046B000CF911F9108952091120424FF05C042E17B
:1046C00054E066E00C943923089590919F03981369
:1046D00007C020919D0330919E0326173707B9F03C
:1046E00080939F0370939E0360939D0380939A032E
:1046F00070939C0360939B038091120484FF07C016
:1047000042E154E063E08AE993E00C943923089590
:10471000BC0184E00C946523BC0183E00C94652308
:10472000CF93DF93CAE0D0E08091DF0384FF1AC00B
:1047300080919803909199039817F1F028E0829F57
:10474000C00111244FED53E068E0885E9C4F0E9449
:1047500039238091980390E001968F709927809378
:1047600098030AC00E94E2218FE99FE00197F1F7C8
:1047700000C000002197C1F6DF91CF910895CF933B
:10478000DF93EC01A0919903B0E0CD0101968F7009
:10479000992720919803281779F093E0AA0FBB1F5F
:1047A0009A95E1F7A85EBC4F98E0FE0101900D924A
:1047B0009A95E1F7809399030E94E2210E94902349
:1047C00088E0FE01A2ECB3E001900D928A95E1F73A
:1047D000DF91CF91089598E088E10FB6F894A895FD
:1047E000809360000FBE90936000A895F894D8E085
:1047F000CEEF28E3299320E0299314BEFFCF08953C
:1048000078941F920F920FB60F9211248F939F935B
:10481000AF93BF938091140390911503A091160359
:10482000B09117030196A11DB11D809314039093BD
:104830001503A0931603B0931703BF91AF919F91F7
:104840008F910F900FBE0F901F9018959C014FB73E
:10485000F8948091140390911503A0911603B091E0
:1048600017034FBF821B930B08952FB7F8948091C5
:10487000140390911503A0911603B09117032FBF55
:1048800008951F920F920FB60F9211248F939F934A
:10489000AF93BF9380911303811113C080911403D0
:1048A00090911503A0911603B09117034196A11D95
:1048B000B11D8093140390931503A0931603B09336
:1048C0001703BF91AF919F918F910F900FBE0F90E3
:1048D0001F90189580911203882321F110921303E1
:1048E00020E488E190E00FB6F894A89580936000EA
:1048F0000FBE2093600083B7817F846083BF83B73E
:10490000816083BF7894889583B78E7F83BF0FB60D
:10491000F894A8958091600088618093600010925F
:1049200060000FBE08959C01FC0132969FEF80E06D
:104930004191461789F09F3F19F4411101C0982F0A
:104940008F5F8630A9F79F3F39F0F901E90FF11D1C
:1049500097FDFA9562830895089520911003309190
:1049600011032817390771F09093110380931003F6
:10497000E0910E03F0910F03309721F00084F18550
:10498000E02D0994089520910C0330910D03281710
:10499000390771F090930D0380930C03E0910E039F
:1049A000F0910F03309721F00680F781E02D0994F4
:1049B0000895E0910E03F0910F03309721F00190DC
:1049C000F081E02D099480E008950F931F93CF9319
:1049D000DF93C42FD22FFC0182818823C9F040933A
:1049E0000B030E94352490930A038093090380E20D
:1049F0008C0F883008F05BC0C77081E001C0880F61
:104A0000CA95EAF7DF91CF911F910F910C94021391
:104A100080910B03481334C08091090390910A03DD
:104A20000E9426242091FF023091000382179307F1
:104A300038F510E21D0FCD17B9F080E28C0F8830E9
:104A400040F4C77081E001C0880FCA95EAF70E9460
:104A5000FB12183028F581E09D2F977001C0880F58
:104A60009A95EAF70E940213802F0E949C13183037
:104A7000F0F4D77081E001C0880FDA95EAF70AC038
:104A800080E28C0F883098F4C77081E001C0880FF5
:104A9000CA95EAF7DF91CF911F910F910C94FB1209
:104AA000802FDF91CF911F910F910C949C13DF9178
:104AB000CF911F910F910895452B41F06F3F41F425
:104AC00091E08F3F09F090E0892F03C081E001C0A1
:104AD00080E0817008951092E6021092E502109233
:104AE00019018091E4028093E3020E9451170C9413
:104AF00002173F924F925F926F927F928F929F9296
:104B0000AF92BF92CF92DF92EF92FF920F931F93DB
:104B1000CF93DF93C091E30297E0892E01E010E08C
:104B20002CE0322E3EEF932E442443948091E402F5
:104B3000C81709F478C0D0E0FE01EE0FFF1FE55260
:104B4000FD4F80819181889ED001899EB00D1124F6
:104B5000A154BD4F14962C911497211161C050900F
:104B60005E02EFE5F2E020E030E0712C5D012515FA
:104B700008F054C0E284F384D501CD90DC906FEF4F
:104B80007FEF612C462D50E0DA01AA0FBB1FAC0D60
:104B9000BD1D0D90BC91A02D109731F0EA16FB06BB
:104BA00009F4BA016394EECF6F3FBFEF7B0791F139
:104BB000D80102C0AA0FBB1F6A95E2F77A2AB80192
:104BC00002C0660F771F6A94E2F7AB0141505109AA
:104BD000672D70E046175707D9F4329EF001339ED7
:104BE000F00D1124E15AFD4F889ED001899EB00D31
:104BF0001124A154BD4F12962D913C9113973783E8
:104C00002683908291829187808715964C9206C068
:104C1000148213822F5F3F4F3C96A9CF0E94D41677
:104C20002196C37083CF0E940217DF91CF911F910D
:104C30000F91FF90EF90DF90CF90BF90AF909F903B
:104C40008F907F906F905F904F903F900C94511792
:104C5000AF92BF92CF92DF92EF92FF920F931F938A
:104C6000CF93DF93EC018AE0A82E2881222309F458
:104C700097C0213009F041C08981813039F48E011B
:104C80000E5F1F4F8A810E949C1308C0823041F43E
:104C90008E010E5F1F4F8A810E944113E8017EC082
:104CA000833039F48E010E5F1F4F8A810E940913F1
:104CB000F5CF843011F0219671C02A81229680E0D0
:104CC00090E030E0205331092A30310558F4A89E95
:104CD000A001A99E500D1124C901840F951F219692
:104CE0002881EFCF009709F459C0EFE9FFE0319731
:104CF000F1F700C000000197F5CFE22FF0E0EC548F
:104D0000FA4FB490822F86958695869590E0FC01A7
:104D1000EC55FA4FE4902770F12C022E02C0F59466
:104D2000E7940A94E2F7F1E0EF22FF24FC01EC564D
:104D3000FA4FC490D12C022E02C0D594C7940A9485
:104D4000E2F731E0C322DD24FC01EC57FA4F049175
:104D500010E002C0159507952A95E2F7017011271A
:104D6000E114F10419F081EE0E944113C114D10441
:104D700019F086EE0E9441138B2D0E949C13CD28C2
:104D800019F086EE0E940913EF2819F081EE0E94B7
:104D90000913012B19F08CE20E949C13219665CF18
:104DA000DF91CF911F910F91FF90EF90DF90CF9007
:104DB000BF90AF9008951F93CF93DF9300D000D0A2
:104DC0001F92CDB7DEB749835A8389819A816623C2
:104DD00059F0222349F00E94F011182F682F898181
:104DE0009A810E945C1203C00E942C12182F6981C4
:104DF0007A81812F0F900F900F900F900F90DF917D
:104E0000CF911F910C94F519FC01262F8681978173
:104E1000009739F4408151816281738184810C94BF
:104E2000DB2608952F923F924F925F926F927F926E
:104E30008F929F92AF92BF92CF92DF92EF92FF92AA
:104E40000F931F93CF93DF93CDB7DEB76A970FB65B
:104E5000F894DEBF0FBECDBF942F498B252F5A8B00
:104E60006B8B7C8B8D8B4C895D89622F892F0E9487
:104E70005C25811109C080916701909168010196BC
:104E800090936801809367018B8981111092CF0103
:104E90008E01075F1F4F88E0F80111928A95E9F7AC
:104EA00085E0FE017196D80101900D928A95E1F797
:104EB00080916A0182FD28C08091E9029091EA0206
:104EC000892B11F10E94352420914B0230914C0224
:104ED000821B930B2091E9023091EA02821793071B
:104EE00040F080914D0282FB992790F981E089275B
:104EF00001C080E080FF03C082E00E9411200E9478
:104F0000612081110E94DE1F4C855D856A8589853F
:104F10000E945C258111CAC161E0C8010E9404277A
:104F20006C01873FFCE59F0739F48B858823A9F046
:104F300081E080931901BAC1883F9C4531F48B858B
:104F4000882359F00E946B25B1C189EFC8168CE502
:104F5000D80619F48B85811111C00FEB12E0512C8A
:104F6000A12CB12C66246394712C33243394FE015C
:104F70003196FF8BEE8BF7E02F2E4DC080911901FB
:104F80008823B1F2DFCFC616D70609F097019F5FDD
:104F90007901292F30E0F901EE0FFF1FE40FF51F13
:104FA000608171816115710571F7FFEFEF16FF06E2
:104FB00009F430C1F8016481611135C020911901F3
:104FC000822F81704B84F80135812681442009F4B9
:104FD000C9C0882309F4C6C08090FD029090FE02EB
:104FE000332321F1930102C0220F331F9A95E2F778
:104FF00021503109F801868190E02817390749F1DD
:105000005428FFEFAF1ABF0A095F1F4F24E0A21612
:10501000B10409F401C1F80140815181EE24EA9400
:10502000FE2C90E0B6CF20E030E0CACFA30101C053
:10503000440FEA94EAF7242B26832091F50130915E
:10504000F6012815390570F69092F6018092F50167
:10505000C9CF8091E5029091E602009731F00E945D
:1050600026248816990608F41EC18091E302F09167
:10507000E402F88FE0E0F0E0288D821709F460C0C8
:10508000282F30E0F901EE0FFF1FE552FD4F808021
:105090009180289CF001299CF00D1124E154FD4FD2
:1050A000F080E18050E090E040E0EF2DFE2DE40F35
:1050B000F11DE40FF11DA081B1811097D1F0F8012D
:1050C000F081F98FF801F181FA8F90E0E98DFA8D86
:1050D000E90FF11DE90FF11D608171816115710505
:1050E00031F0A617B70709F451E09F5FEFCF4F5F8C
:1050F000DCCF5523F9F09417C8F0289CF001299CC7
:10510000F00D1124E154FD4F3097B1F03482E017D7
:10511000F10709F475CF9091E30289130DC0C9011D
:105120000196837099278093E30206C0011511054B
:1051300009F0B9C0E0E0F0E0C901019683709CCFAE
:10514000E017F10709F45CCF90E0FC01EE0FFF1FC0
:10515000E552FD4FB182A08201968370992780931A
:10516000E4024ECF311112C0A30102C0440F551FFB
:105170009A95E2F74150510930E042175307E9F59B
:105180006623E1F1C5010E94D41637C0822F90E05A
:105190009C0121503109282339230E2C02C09595FA
:1051A00087950A94E2F7232B31F580FF24C0F8019C
:1051B00082819381892BD9F088E0EE89FF89119251
:1051C0008A95E9F78EEF89838A830E94352481606E
:1051D000582F9D838C83F801828193818F839887D8
:1051E00029813A814B816D817E810E941F16F801D1
:1051F000158281E003C0817001C080E0930101C08D
:10520000220FEA94EAF72095F80196812923268354
:10521000482EF6CE412CF4CE8B85882381F1552083
:1052200071F10E9435249093E6028093E50280910B
:105230005E02883008F044C091E0980F90935E02BF
:1052400098E0FE013996DE01119601900D929A9533
:10525000E1F7ECE08E9FC0011124815A9D4F28E0B8
:10526000FE013196DC0101900D922A95E1F72FEFB6
:105270003FEFFC0131872087D386C28621C0909101
:10528000E3028091E402981719F00E94792508C082
:105290000E9402171092E6021092E5020E94511736
:1052A000552021F00DC0F8013482AACE29853A8517
:1052B0004B855C856D857E858F8598890E941F163C
:1052C0006A960FB6F894DEBF0FBECDBFDF91CF91C7
:1052D0001F910F91FF90EF90DF90CF90BF90AF9014
:1052E0009F908F907F906F905F904F903F902F9006
:1052F00008959C013A9521153F4130F5BC01662780
:105300007270AC01442754709C012227387094FFBE
:105310000FC090FF02C080E101C080E0672B09F060
:105320008062452B09F08064232B79F08068089512
:10533000892F8170672B09F08260452B09F084600A
:10534000232B19F08860089580E00895CF93DF93B0
:10535000EC010E940913CE01805E9109089710F0BC
:10536000209739F4CE010E947929DF91CF910C94D6
:10537000FB12CE010E947929DF91CF910C94E612A5
:10538000FB01DC0102C005900D9241505040D8F75E
:105390000895DC01CB01FC01F999FECF06C0F2BDF6
:1053A000E1BDF89A319600B40D9241505040B8F7E3
:1053B0000895F999FECF92BD81BDF89A992780B5DD
:1053C0000895A8E1B0E042E050E00C94CB29262FEC
:1053D000F999FECF92BD81BDF89A019700B40216EB
:1053E00039F01FBA20BD0FB6F894FA9AF99A0FBE99
:1053F00008950396272F0E94E8290E94E729252F68
:105400000E94E829242F0C94E8290196272F0E9456
:10541000E8290C94E729DC01CB0103C02D910E94FF
:10542000162A41505040D0F70895262FF999FECF03
:105430001FBA92BD81BD20BD0FB6F894FA9AF99AB1
:105440000FBE01960895AA1BBB1B51E107C0AA1FFE
:10545000BB1FA617B70710F0A61BB70B881F991F15
:105460005A95A9F780959095BC01CD01089597FBB9
:10547000072E16F4009407D077FD09D00E94232A46
:1054800007FC05D03EF4909581959F4F0895709547
:1054900061957F4F0895EE0FFF1F0590F491E02D69
:1054A00009946927962769277827872778270895F9
:1054B000FB01DC0104C08D910190801921F4415061
:1054C0005040C8F7881B990B0895FB01DC0102C00E
:1054D00001900D9241505040D8F70895DC0101C071
:0E54E0006D9341505040E0F70895F894FFCFCF
:1054EE00D421BF235B238C238823D32101002808DA
:1054FE00641E140A321EAF000101FF5AA81834BAF6
:10550E0042B6019B3133606461626334329694918A
:10551E009065818283E200E900EA00B500B600B72B
:10552E0000CD008301CC008A019201940121022357
:10553E000224022502260227022A02B300B4006FBB
:04554E0000700000E9
:00000001FF
